:100000000C945D000C9485000C9485000C94850084
:100010000C9485000C9485000C9485000C9485004C
:100020000C9485000C9485000C9485000C9485003C
:100030000C9485000C9485000C9485000C9485002C
:100040000C94CB000C9485000C9485000C948500D6
:100050000C9485000C9485000C9485000C9485000C
:100060000C9485000C94850000000007000201003C
:100070000003040600000000000000000102040864
:100080001020408001020408102001020408102002
:10009000040404040404040402020202020203032E
:1000A0000303030300000000250028002B000000CC
:1000B0000000240027002A00B80011241FBECFEF43
:1000C000D8E0DEBFCDBF11E0A0E0B1E0EEE5F8E0A2
:1000D00002C005900D92A231B107D9F711E0A2E15B
:1000E000B1E001C01D92A033B107E1F710E0CAEB07
:1000F000D0E004C02297FE010E942904C83BD1072A
:10010000C9F70E947D020C9424040C94000020E0A6
:1001100042E060E182E191E00E944A0361E083E015
:100120000E94D40161E082E00E94D40160E071E0AD
:1001300082E191E00C947B0261E083E00E940C027A
:1001400068E873E180E090E00E943F0160E083E0B6
:100150000E940C0261E082E00E940C0268EE73E0F3
:1001600080E090E00E943F0160E082E00C940C028D
:10017000CF92EF920F938DE0C82E9CE0E92E0BE01A
:100180002AE049E068E082E191E00E94FE030F91DD
:10019000EF90CF9008951F920F920FB60F921124F7
:1001A0002F933F938F939F93AF93BF93809127019A
:1001B00090912801A0912901B0912A0130912F013D
:1001C000232F2D5F2D3720F40196A11DB11D05C0F1
:1001D000232F2A570296A11DB11D20932F01809332
:1001E000270190932801A0932901B0932A018091BF
:1001F0002B0190912C01A0912D01B0912E0101961F
:10020000A11DB11D80932B0190932C01A0932D0172
:10021000B0932E01BF91AF919F918F913F912F91FC
:100220000F900FBE0F901F9018950F931F939FB7BD
:10023000F89400912B0110912C0120912D01309107
:100240002E0186B5A89B06C08F3F21F00F5F1F4F80
:100250002F4F3F4F9FBF322F212F102F0027080F06
:10026000111D211D311D42E0000F111F221F331FE0
:100270004A95D1F7B801C9011F910F910895CF9206
:10028000DF92EF92FF92CF93DF936B017C010E948C
:100290001501EB010EC00E9415016C1B7D0B683E21
:1002A000734038F081E0C81AD108E108F108C8515C
:1002B000DC4FC114D104E104F10469F7DF91CF915F
:1002C000FF90EF90DF90CF900895019739F0880F5D
:1002D000991F880F991F02970197F1F70895789455
:1002E00084B5826084BD84B5816084BD85B582603B
:1002F00085BD85B5816085BDEEE6F0E080818160D9
:100300008083E1E8F0E010828081826080838081D8
:1003100081608083E0E8F0E0808181608083E1EBB0
:10032000F0E0808184608083E0EBF0E08081816098
:100330008083EAE7F0E0808184608083808182604E
:100340008083808181608083808180688083109237
:10035000C1000895833069F028F48130A1F0823023
:1003600011F514C08630B1F08730C1F08430D9F473
:1003700004C0809180008F7703C0809180008F7DC2
:1003800080938000089584B58F7702C084B58F7DF7
:1003900084BD08958091B0008F7703C08091B00034
:1003A0008F7D8093B0000895CF93DF9390E0FC01A0
:1003B000E458FF4F4491FC01E057FF4F849188239C
:1003C00041F190E0880F991FFC01E255FF4F259104
:1003D0003491D9018C559F4FFC0185919491C82F80
:1003E000D92F9FB7F8948C91611106C04095842352
:1003F0008C938881842308C0623041F4242F209597
:1004000082238C938881842B888302C0842B8C93D5
:100410009FBFDF91CF9108950F931F93CF93DF93E9
:100420001F92CDB7DEB7282F30E0F901E859FF4F12
:100430008491F901E458FF4F1491F901E057FF4FFF
:1004400004910023D1F0882321F069830E94AA013E
:100450006981E02FF0E0EE0FFF1FEC55FF4F859113
:100460009491DC019FB7F8948C91611103C01095B1
:10047000812301C0812B8C939FBF0F90DF91CF917F
:100480001F910F910895CF92DF92EF92FF920F93F9
:100490001F93CF93DF936C01EB017A01E60EF71EF9
:1004A00000E010E00BC06991D601ED91FC91019044
:1004B000F081E02DC6010995080F191FCE15DF0543
:1004C00091F7C801DF91CF911F910F91FF90EF90AD
:1004D000DF90CF900895DB010D900020E9F7AD018A
:1004E00041505109461B570BDC01ED91FC910280F4
:1004F000F381E02D09940C946B020E946F010E941D
:100500008700C0E0D0E00E949C002097E1F30E94A9
:100510000000F9CFCF93DF93EC0160E08E810E9461
:100520000C0281E090E00E94650161E08E810E94F2
:100530000C0281E090E00E94650160E08E810E94E3
:100540000C0284E690E0DF91CF910C946501CF928C
:10055000DF92EF92FF920F931F93CF93DF937C0173
:10056000C0E0D0E0C62ED12C87010C0F1D1F61E02A
:10057000F80187810E94D401B6010C2E02C0759546
:1005800067950A94E2F761707727F80187810E94E6
:100590000C022196C430D10539F7C701DF91CF9104
:1005A0001F910F91FF90EF90DF90CF900C948A02F3
:1005B000CF92DF92EF92FF920F931F93CF93DF932F
:1005C0007C01C0E0D0E0C62ED12C87010C0F1D1F8E
:1005D00061E0F80187810E94D401B6010C2E02C0AF
:1005E000759567950A94E2F761707727F80187811E
:1005F0000E940C022196C830D10539F7C701DF915E
:10060000CF911F910F91FF90EF90DF90CF900C94BE
:100610008A021F93CF93DF93EC01162F642F8C81F6
:100620000E940C028D818F3F19F060E00E940C0245
:100630008F85612F84FF06C0CE01DF91CF911F917E
:100640000C94D80270E084E0759567958A95E1F77F
:10065000CE010E94A702612FCE01DF91CF911F91A1
:100660000C94A70241E00E94090381E090E0089504
:1006700040E00C940903FC016089262F2460208B44
:100680006C600C94380361E00E94380380ED97E0C1
:100690000C946501CF93DF93EC01423018F08F8505
:1006A00088608F874B8B1C8A222329F0413019F4F4
:1006B0008F8584608F8780E593EC0E94650160E000
:1006C0008C810E940C0260E08E810E940C028D8160
:1006D0008F3F19F060E00E940C026F8564FD1DC021
:1006E00063E0CE010E94A70284E991E10E946501C6
:1006F00063E0CE010E94A70284E991E10E946501B6
:1007000063E0CE010E94A70286E990E00E946501A5
:1007100062E0CE010E94A70216C06062CE010E9474
:10072000380384E991E10E9465016F856062CE0122
:100730000E94380386E990E00E9465016F8560623F
:10074000CE010E9438036F856062CE010E9438039B
:1007500084E0888BCE010E943B03CE010E944303BC
:1007600082E0898B66E0CE01DF91CF910C94380353
:100770006F927F928F92AF92CF92EF920F931F93CF
:10078000CF93DF93CDB7DEB73C01162F842F5D8565
:100790004E853F859889F301848325830683E7820C
:1007A000C086A1868286538744873587968761E015
:1007B0000E94D401F30185818F3F19F061E00E940E
:1007C000D40161E0F30186810E94D401112319F064
:1007D000F301178603C080E1F301878720E041E041
:1007E00060E1C301DF91CF911F910F91EF90CF9006
:1007F000AF908F907F906F900C944A038F92AF923E
:10080000CF92EF920F93DC0113961C921E921297D7
:10081000EDE0F1E0ED93FC931F921F921F921F9267
:100820008C2CAE2CC02EE22E042F2FEF462F61E031
:100830000E94B8030F900F900F900F900F91EF90C0
:10084000CF90AF908F900895F8940C942D04EE0FF4
:0E085000FF1F0590F491E02D0994F894FFCF5E
:10085E0043656C616661726F0000000000320343F5
:02086E00020086
:00000001FF
