:100000000C945D000C9485000C9485000C94850084
:100010000C9485000C9485000C9485000C9485004C
:100020000C9485000C9485000C9485000C948E052E
:100030000C9485000C9485000C9485000C9485002C
:100040000C94DC000C9485000C9485000C948500C5
:100050000C9485000C9485000C9485000C9485000C
:100060000C9485000C94850000000007000201003C
:100070000003040600000000000000000102040864
:100080001020408001020408102001020408102002
:10009000040404040404040402020202020203032E
:1000A0000303030300000000250028002B000000CC
:1000B0000000240027002A00C60011241FBECFEF35
:1000C000D8E0DEBFCDBF11E0A0E0B1E0E4EBF4E1A9
:1000D00002C005900D92AA31B107D9F711E0AAE14B
:1000E000B1E001C01D92AE36B107E1F710E0CAEBF6
:1000F000D0E004C02297FE010E94540AC83BD107F9
:10010000C9F70E94E7030C94C7070C94000020E095
:1001100042E060E18AE291E00E94B40461E08DE097
:100120000E94E50163E070E08AE191E00E94E90647
:1001300060E071E08AE291E00E948C02409121012E
:1001400050912201609123017091240122E030E05E
:100150008AE291E00C94E50361E08DE00E941D02CB
:1001600068EE73E080E090E00E94500160E08DE076
:100170000E941D0268EE73E080E090E00E94500152
:100180006AE570E08AE191E00C942207CF92EF9249
:100190000F938DE0C82E9CE0E92E0BE02AE049E0A9
:1001A00068E08AE291E00E9468058AE191E00F919F
:1001B000EF90CF900C944C061F920F920FB60F92B7
:1001C00011242F933F938F939F93AF93BF9380916D
:1001D0003F0190914001A0914101B09142013091C5
:1001E0004701232F2D5F2D3720F40196A11DB11D4E
:1001F00005C0232F2A570296A11DB11D2093470148
:1002000080933F0190934001A0934101B09342013C
:100210008091430190914401A0914501B091460124
:100220000196A11DB11D8093430190934401A093B9
:100230004501B0934601BF91AF919F918F913F913E
:100240002F910F900FBE0F901F9018950F931F9333
:100250009FB7F8940091430110914401209145010A
:100260003091460186B5A89B06C08F3F21F00F5FF5
:100270001F4F2F4F3F4F9FBF322F212F102F00278F
:10028000080F111D211D311D42E0000F111F221FFB
:10029000331F4A95D1F7B801C9011F910F910895F5
:1002A000CF92DF92EF92FF92CF93DF936B017C01AD
:1002B0000E942601EB010EC00E9426016C1B7D0BE3
:1002C000683E734038F081E0C81AD108E108F108AF
:1002D000C851DC4FC114D104E104F10469F7DF9186
:1002E000CF91FF90EF90DF90CF900895019739F074
:1002F000880F991F880F991F02970197F1F70895AA
:10030000789484B5826084BD84B5816084BD85B5F0
:10031000826085BD85B5816085BDEEE6F0E08081B7
:1003200081608083E1E8F0E01082808182608083D8
:10033000808181608083E0E8F0E08081816080835B
:10034000E1EBF0E0808184608083E0EBF0E080818D
:1003500081608083EAE7F0E080818460808380812F
:1003600082608083808181608083808180688083D7
:100370001092C1000895833069F028F48130A1F013
:10038000823011F514C08630B1F08730C1F084306E
:10039000D9F404C0809180008F7703C080918000E1
:1003A0008F7D80938000089584B58F7702C084B5D7
:1003B0008F7D84BD08958091B0008F7703C08091B8
:1003C000B0008F7D8093B0000895CF93DF9390E0CD
:1003D000FC01E458FF4F4491FC01E057FF4F84912A
:1003E000882341F190E0880F991FFC01E255FF4FEF
:1003F00025913491D9018C559F4FFC0185919491A1
:10040000C82FD92F9FB7F8948C91611106C04095E1
:1004100084238C938881842308C0623041F4242F84
:10042000209582238C938881842B888302C0842B1F
:100430008C939FBFDF91CF9108950F931F93CF931C
:10044000DF931F92CDB7DEB7282F30E0F901E859CE
:10045000FF4F8491F901E458FF4F1491F901E057DF
:10046000FF4F04910023D1F0882321F069830E947B
:10047000BB016981E02FF0E0EE0FFF1FEC55FF4F4D
:1004800085919491DC019FB7F8948C91611103C020
:100490001095812301C0812B8C939FBF0F90DF911A
:1004A000CF911F910F910895CF92DF92EF92FF921B
:1004B0000F931F93CF93DF936C01EB017A01E60E4C
:1004C000F71E00E010E00BC06991D601ED91FC91A0
:1004D0000190F081E02DC6010995080F191FCE1576
:1004E000DF0591F7C801DF91CF911F910F91FF9028
:1004F000EF90DF90CF900895DB010D900020E9F799
:10050000AD0141505109461B570BDC01ED91FC91A7
:100510000280F381E02D09940C947C02DC01ED91C2
:10052000FC910190F081E02D09944F925F926F92BF
:100530007F929F92AF92BF92CF92DF92EF92FF9203
:100540000F931F93CF93DF93CDB7DEB7A1970FB66D
:10055000F894DEBF0FBECDBF5C016A017B01922E15
:1005600019A281E0821710F08AE0982E8E010F5DAB
:100570001F4F492C512C612C712CC701B601A301CE
:1005800092010E94080A8C2D929E8019112401501C
:1005900011098A3014F4805D01C0895CF801808300
:1005A00069017A01C114D104E104F10431F7B80101
:1005B000C5010E947C02A1960FB6F894DEBF0FBE63
:1005C000CDBFDF91CF911F910F91FF90EF90DF9002
:1005D000CF90BF90AF909F907F906F905F904F9023
:1005E0000895CF92DF92EF92FF920F931F93CF93D4
:1005F000DF93EC016A017B012115310579F4E88173
:10060000F9810190F081E02D642FDF91CF911F914E
:100610000F91FF90EF90DF90CF9009942A30310531
:1006200019F477FD0EC02AE0B701A601CE01DF91D3
:10063000CF911F910F91FF90EF90DF90CF900C948E
:1006400095026DE20E948E028C0144275527BA0163
:100650004C195D096E097F092AE0CE010E949502BE
:10066000080F191FC801DF91CF911F910F91FF90C3
:10067000EF90DF90CF9008957F928F929F92AF92EC
:10068000BF92CF92DF92EF92FF920F931F93CF937F
:10069000DF938C014A015B01F22E20E030E0A901DA
:1006A000C501B4010E942F0887FF0AC06DE2C8018E
:1006B0000E948E02EC01B7FAB094B7F8B09402C071
:1006C000C0E0D0E0E12C60E070E080E09FE307C094
:1006D00020E030E040E251E40E943308E394EF1060
:1006E000F7CF262F372F482F592FC501B4010E946D
:1006F000CB07762E872E982EA92E0E94A008B62E04
:10070000C72ED82EE92E0E94CC089B01AC01672D84
:10071000782D892D9A2D0E94CA07A62E972E882EF5
:10072000792E2AE04B2D5C2D6D2D7E2DC8010E9467
:100730009502C80FD91FFF20B9F16FE071E0C80121
:100740000E947C02C80FD91F2FC020E030E040E299
:1007500051E46A2D792D882D972D0E947E09762EE1
:10076000C72ED82EE92E0E949B084B01AA2497FC85
:10077000A094BA2C2AE030E0B501A401C8010E947F
:10078000F102C80FD91FC501B4010E94CE089B0118
:10079000AC01672D7C2D8D2D9E2D0E94CA07A62EA3
:1007A000972E882E792EFA94F110CFCFCE01DF91BB
:1007B000CF911F910F91FF90EF90DF90CF90BF905E
:1007C000AF909F908F907F9008950C943C030E946F
:1007D00080010E948700C0E0D0E00E94AC0020971A
:1007E000E1F30E940000F9CFCF93DF93EC0160E0CA
:1007F0008E810E941D0281E090E00E94760161E0FE
:100800008E810E941D0281E090E00E94760160E0EE
:100810008E810E941D0284E690E0DF91CF910C94BE
:100820007601CF92DF92EF92FF920F931F93CF93B7
:10083000DF937C01C0E0D0E0C62ED12C87010C0FE5
:100840001D1F61E0F80187810E94E501B6010C2EB1
:1008500002C0759567950A94E2F761707727F801F1
:1008600087810E941D022196C430D10539F7C70146
:10087000DF91CF911F910F91FF90EF90DF90CF907C
:100880000C94F403CF92DF92EF92FF920F931F9399
:10089000CF93DF937C01C0E0D0E0C62ED12C87013E
:1008A0000C0F1D1F61E0F80187810E94E501B60170
:1008B0000C2E02C0759567950A94E2F76170772750
:1008C000F80187810E941D022196C830D10539F7B1
:1008D000C701DF91CF911F910F91FF90EF90DF90B3
:1008E000CF900C94F4031F93CF93DF93EC01162F5A
:1008F000642F8C810E941D028D818F3F19F060E072
:100900000E941D028F85612F84FF06C0CE01DF91FA
:10091000CF911F910C94420470E084E07595679527
:100920008A95E1F7CE010E941104612FCE01DF917B
:10093000CF911F910C94110441E00E94730481E057
:1009400090E0089540E00C947304FC016089262F28
:100950002460208B6C600C94A20461E00E94A204CD
:1009600080ED97E00C947601CF93DF93EC01423059
:1009700018F08F8588608F874B8B1C8A222329F083
:10098000413019F48F8584608F8780E593EC0E9455
:10099000760160E08C810E941D0260E08E810E94E1
:1009A0001D028D818F3F19F060E00E941D026F854E
:1009B00064FD1DC063E0CE010E94110484E991E151
:1009C0000E94760163E0CE010E94110484E991E166
:1009D0000E94760163E0CE010E94110486E990E056
:1009E0000E94760162E0CE010E94110416C060628E
:1009F000CE010E94A20484E991E10E9476016F85F4
:100A00006062CE010E94A20486E990E00E94760115
:100A10006F856062CE010E94A2046F856062CE0184
:100A20000E94A20484E0888BCE010E94A504CE011E
:100A30000E94AD0482E0898B66E0CE01DF91CF9108
:100A40000C94A2046F927F928F92AF92CF92EF920A
:100A50000F931F93CF93DF93CDB7DEB73C01162FD3
:100A6000842F5D854E853F859889F3018483258396
:100A70000683E782C086A1868286538744873587AE
:100A8000968761E00E94E501F30185818F3F19F0AF
:100A900061E00E94E50161E0F30186810E94E501C9
:100AA000112319F0F301178603C080E1F301878752
:100AB00020E041E060E1C301DF91CF911F910F91F0
:100AC000EF90CF90AF908F907F906F900C94B40484
:100AD0008F92AF92CF92EF920F93DC0113961C92FC
:100AE0001E921297E5E1F1E0ED93FC931F921F92A5
:100AF0001F921F928C2CAE2CC02EE22E042F2FEFB3
:100B0000462F61E00E9422050F900F900F900F90EA
:100B10000F91EF90CF90AF908F9008951F920F920A
:100B20000FB60F9211242F933F934F935F936F93C0
:100B30007F938F939F93AF93BF93EF93FF93809196
:100B4000490187FF05C010928500109284001AC0E9
:100B500020914901332727FD30958091480190E08D
:100B6000281739077CF480914901992787FD9095D2
:100B7000FC01EE0FFF1FE80FF91FE65BFE4F8081BF
:100B800086FD37C0809149018F5F80934901209194
:100B90004901332727FD30958091480190E02817BF
:100BA0003907CCF5809149018C30F4F134C0809143
:100BB0004901992787FD9095FC01EE0FFF1FE80F73
:100BC000F91FE65BFE4F808161E08F730E941D027A
:100BD00052C080E49CE905C080918400909185001A
:100BE000049690938900809388008FEF8093490149
:100BF00042C080914901992787FD9095FC01EE0F35
:100C0000FF1FE80FF91FE65BFE4F808160E08F73E6
:100C10000E941D02B7CF80918400909185000496B8
:100C200080349C49B0F2D8CF8091840090918500A7
:100C300020914901332727FD3095F901EE0FFF1F61
:100C4000E20FF31FE65BFE4F21813281820F931F7B
:100C5000909389008093880080914901992787FDAE
:100C60009095FC01EE0FFF1FE80FF91FE65BFE4FAA
:100C7000808186FD9CCFFF91EF91BF91AF919F91B5
:100C80008F917F916F915F914F913F912F910F9035
:100C90000FBE0F901F901895209148012C30A0F4A2
:100CA000FC012083822F8F5F80934801822F90E088
:100CB000FC01EE0FFF1FE80FF91FE65BFE4F88EB0C
:100CC0009BE09283818308952FEFFC012083089598
:100CD000DF92EF92FF920F931F93CF93DF93EC017C
:100CE000D62E7A01890188818C3008F065C061E0D8
:100CF0008D2D0E94E5018881A82FB0E0FD01EE0F47
:100D0000FF1FEA0FFB1FE65BFE4F2D2D2F73908117
:100D1000907C922B908360E272E06E197F0977FFDE
:100D200002C06D5F7F4F759567957595679569836F
:100D300040E659E0401B510B57FF02C04D5F5F4F2B
:100D400055954795559547954A836CE00E94FC0957
:100D50009CE0899FB001112420E030E0A901460FFA
:100D6000571FFA01EE0FFF1FE40FF51FE65BFE4F62
:100D7000908196FD15C02F5F3F4F2C30310571F7E4
:100D80001DC01092800082E0809381001092850047
:100D900010928400B19A80916F00826080936F00FE
:100DA000888190E0FC01EE0FFF1FE80FF91FE65B62
:100DB000FE4F808180648083888103C0882309F38B
:100DC000EFCFDF91CF911F910F91FF90EF90DF90C8
:100DD000089520E639E040E252E00C946806FC01F8
:100DE00080818C3070F5918128E830E0291B310931
:100DF00097FD3395220F331F220F331F621773079E
:100E00007CF0928128E532E0291B310997FD33956A
:100E1000220F331F220F331F621773070CF49B013D
:100E20004FB7F89490E0FC01EE0FFF1FE80FF91F99
:100E3000E65BFE4F22503109220F331F328321839C
:100E40004FBF0895AF92BF92CF92DF92EF92FF9281
:100E50000F931F93CF93DF93EC01603282E078070A
:100E60000CF041C077FD04C0653B710524F405C05A
:100E700060E070E002C064EB70E0298188E890E0F7
:100E8000821B910927FD9395880F991F880F991F41
:100E90005C01CC24B7FCC094DC2C882777FD8095BE
:100EA000982F2A8148E552E0421B510927FD5395AE
:100EB000440F551F440F551F8A01222717FD209507
:100EC000322F3F932F931F930F9314EBE12EF12CAE
:100ED00000E010E020E030E0A9010E9480070F90C0
:100EE0000F900F900F90CE01DF91CF911F910F9136
:100EF000FF90EF90DF90CF90BF90AF900C94EF06F3
:100F00004F925F926F927F92AF92BF92CF92DF9299
:100F1000EF92FF920F931F93CF93DF93CDB7DEB77E
:100F200029013A01621B730B840B950B29893A89BD
:100F30004B895C892A193B094C095D09298B3A8B3D
:100F40004B8B5C8B9B01AC0169897A898B899C896D
:100F50000E94EC09E418F50806091709A801970191
:100F60000E942A0A2A0D3B1D4C1D5D1DB901CA01B4
:100F7000DF91CF911F910F91FF90EF90DF90CF9075
:100F8000BF90AF907F906F905F904F900895F894CE
:100F90000C94580A5058BB27AA270ED075C166D1A9
:100FA00030F06BD120F031F49F3F11F41EF45BC19F
:100FB0000EF4E095E7FB51C1E92F77D180F3BA1722
:100FC000620773078407950718F071F49EF58FC1C7
:100FD0000EF4E0950B2EBA2FA02D0B01B901900154
:100FE0000C01CA01A0011124FF27591B99F0593F98
:100FF00050F4503E68F11A16F040A22F232F342FE0
:101000004427585FF3CF469537952795A795F0402D
:101010005395C9F77EF41F16BA0B620B730B840B42
:10102000BAF09150A1F0FF0FBB1F661F771F881FFA
:10103000C2F70EC0BA0F621F731F841F48F4879552
:1010400077956795B795F7959E3F08F0B3CF939541
:10105000880F08F09927EE0F979587950895D9D0B6
:1010600008F481E008950CD00FC107D140F0FED004
:1010700030F021F45F3F19F0F0C0511139C1F3C0D5
:1010800014D198F39923C9F35523B1F3951B550B4C
:10109000BB27AA2762177307840738F09F5F5F4F4B
:1010A000220F331F441FAA1FA9F333D00E2E3AF08C
:1010B000E0E830D091505040E695001CCAF729D0A6
:1010C000FE2F27D0660F771F881FBB1F26173707F5
:1010D0004807AB07B0E809F0BB0B802DBF01FF2725
:1010E00093585F4F2AF09E3F510568F0B6C000C18B
:1010F0005F3FECF3983EDCF3869577956795B7955F
:10110000F7959F5FC9F7880F911D9695879597F979
:101110000895E1E0660F771F881FBB1F62177307F2
:101120008407BA0720F0621B730B840BBA0BEE1F07
:1011300088F7E095089504D06894B111D9C0089556
:10114000BCD088F09F5790F0B92F9927B751A0F0E5
:10115000D1F0660F771F881F991F1AF0BA95C9F74B
:1011600012C0B13081F0C3D0B1E00895C0C0672F84
:10117000782F8827B85F39F0B93FCCF386957795FB
:101180006795B395D9F73EF49095809570956195E4
:101190007F4F8F4F9F4F0895E89409C097FB3EF40F
:1011A00090958095709561957F4F8F4F9F4F9923B4
:1011B000A9F0F92F96E9BB279395F6958795779532
:1011C0006795B795F111F8CFFAF4BB0F11F460FFF2
:1011D0001BC06F5F7F4F8F4F9F4F16C0882311F04A
:1011E00096E911C0772321F09EE8872F762F05C05E
:1011F000662371F096E8862F70E060E02AF09A95F9
:10120000660F771F881FDAF7880F9695879597F9ED
:101210000895990F0008550FAA0BE0E8FEEF161687
:101220001706E807F907C0F012161306E407F507DA
:1012300098F0621B730B840B950B39F40A2661F04E
:10124000232B242B252B21F408950A2609F4A140F1
:10125000A6958FEF811D811D089597F99F6780E8FE
:1012600070E060E008959FEF80EC089500240A94F8
:101270001616170618060906089500240A94121671
:101280001306140605060895092E0394000C11F4A4
:10129000882352F0BB0F40F4BF2B11F460FF04C051
:1012A0006F5F7F4F8F4F9F4F089557FD9058440FAA
:1012B000551F59F05F3F71F04795880F97FB991FB5
:1012C00061F09F3F79F08795089512161306140672
:1012D000551FF2CF4695F1DF08C0161617061806FF
:1012E000991FF1CF86957105610508940895E894DA
:1012F000BB2766277727CB0197F908950BD0C4CF7A
:10130000B5DF28F0BADF18F0952309F0A6CFABCFF0
:101310001124EECFCADFA0F3959FD1F3950F50E0D3
:10132000551F629FF001729FBB27F00DB11D639F97
:10133000AA27F00DB11DAA1F649F6627B00DA11D3D
:10134000661F829F2227B00DA11D621F739FB00DE3
:10135000A11D621F839FA00D611D221F749F332753
:10136000A00D611D231F849F600D211D822F762FEC
:101370006A2F11249F5750408AF0E1F088234AF0E9
:10138000EE0FFF1FBB1F661F771F881F9150504035
:10139000A9F79E3F510570F060CFAACF5F3FECF3F5
:1013A000983EDCF3869577956795B795F795E79521
:1013B0009F5FC1F7FE2B880F911D9695879597F932
:1013C00008950E94460AA59F900DB49F900DA49F7A
:1013D000800D911D11240895DB018F939F930E942E
:1013E000E109BF91AF91A29F800D911DA39F900D28
:1013F000B29F900D11240895991B79E004C0991FA4
:10140000961708F0961B881F7A95C9F7809508955E
:10141000A1E21A2EAA1BBB1BFD010DC0AA1FBB1FF8
:10142000EE1FFF1FA217B307E407F50720F0A21B6A
:10143000B30BE40BF50B661F771F881F991F1A94D7
:1014400069F760957095809590959B01AC01BD0101
:10145000CF010895052E97FB16F4009407D057FD91
:101460000DD00E94080A07FC09D07EF49095809563
:10147000709561957F4F8F4F9F4F08955095409580
:10148000309521953F4F4F4F5F4F0895A29FB00178
:10149000B39FC001A39F01D0B29F700D811D112485
:1014A000911D0895EE0FFF1F0590F491E02D099412
:0414B000F894FFCFDE
:1014B4007777772E656C6574726F6E2E636F002E6E
:0A14C40000000000009C0454020028
:00000001FF
