:100000000C945D000C9485000C9485000C94850084
:100010000C9485000C9485000C9485000C9485004C
:100020000C9485000C9485000C9485000C9485003C
:100030000C9485000C9485000C9485000C9485002C
:100040000C9489020C9485000C9485000C94850016
:100050000C9485000C9485000C9485000C9485000C
:100060000C9485000C94850000000007000201003C
:100070000003040600000000000000000102040864
:100080001020408001020408102001020408102002
:10009000040404040404040402020202020203032E
:1000A0000303030300000000250028002B000000CC
:1000B0000000240027002A00950011241FBECFEF66
:1000C000D8E0DEBFCDBF11E0A0E0B1E0E8E7F7E0A7
:1000D00002C005900D92AA31B107D9F711E0AAE14B
:1000E000B1E001C01D92A833B107E1F710E0CAEBFF
:1000F000D0E004C02297FE010E94B603C83BD1079E
:10010000C9F70E94E2000C94B1030C94000020E0B7
:1001100042E060E18AE191E00C94AF0160E071E0BF
:100120008AE191E00E94E000FFCFCF92EF920F931F
:100130008DE0C82E9CE0E92E0BE02AE049E068E063
:100140008AE191E00E9463020F91EF90CF900895B1
:10015000CF92DF92EF92FF920F931F93CF93DF9393
:100160006C01EB017A01E60EF71E00E010E00BC017
:100170006991D601ED91FC910190F081E02DC601CD
:100180000995080F191FCE15DF0591F7C801DF91FA
:10019000CF911F910F91FF90EF90DF90CF90089536
:1001A000DB010D900020E9F7AD0141505109461BDC
:1001B000570BDC01ED91FC910280F381E02D099455
:1001C0000C94D0000E94DD020E948700C0E0D0E0C5
:1001D0000E948E002097E1F30E940000F9CFCF9398
:1001E000DF93EC0160E08E810E947A0381E090E071
:1001F0000E94D30261E08E810E947A0381E090E048
:100200000E94D30260E08E810E947A0384E690E02F
:10021000DF91CF910C94D302CF92DF92EF92FF92B5
:100220000F931F93CF93DF937C01C0E0D0E0C62EE5
:10023000D12C87010C0F1D1F61E0F80187810E94FE
:100240004203B6010C2E02C0759567950A94E2F739
:1002500061707727F80187810E947A032196C43064
:10026000D10539F7C701DF91CF911F910F91FF9011
:10027000EF90DF90CF900C94EF00CF92DF92EF924F
:10028000FF920F931F93CF93DF937C01C0E0D0E0E8
:10029000C62ED12C87010C0F1D1F61E0F80187814C
:1002A0000E944203B6010C2E02C0759567950A9410
:1002B000E2F761707727F80187810E947A0321961F
:1002C000C830D10539F7C701DF91CF911F910F9148
:1002D000FF90EF90DF90CF900C94EF001F93CF939F
:1002E000DF93EC01162F642F8C810E947A038D819D
:1002F0008F3F19F060E00E947A038F85612F84FFA1
:1003000006C0CE01DF91CF911F910C943D0170E0AA
:1003100084E0759567958A95E1F7CE010E940C01FE
:10032000612FCE01DF91CF911F910C940C0141E020
:100330000E946E0181E090E0089540E00C946E010F
:10034000FC016089262F2460208B6C600C949D0139
:1003500061E00E949D0180ED97E00C94D302CF9361
:10036000DF93EC01423018F08F8588608F874B8BCC
:100370001C8A222329F0413019F48F8584608F87ED
:1003800080E593EC0E94D30260E08C810E947A03A6
:1003900060E08E810E947A038D818F3F19F060E0CA
:1003A0000E947A036F8564FD1DC063E0CE010E9448
:1003B0000C0184E991E10E94D30263E0CE010E9426
:1003C0000C0184E991E10E94D30263E0CE010E9416
:1003D0000C0186E990E00E94D30262E0CE010E9407
:1003E0000C0116C06062CE010E949D0184E991E17A
:1003F0000E94D3026F856062CE010E949D0186E952
:1004000090E00E94D3026F856062CE010E949D0140
:100410006F856062CE010E949D0184E0888BCE01D1
:100420000E94A001CE010E94A80182E0898B66E0B3
:10043000CE01DF91CF910C949D016F927F928F92AC
:10044000AF92CF92EF920F931F93CF93DF93CDB7DD
:10045000DEB73C01162F842F5D854E853F85988938
:10046000F301848325830683E782C086A186828682
:10047000538744873587968761E00E944203F301E2
:1004800085818F3F19F061E00E94420361E0F30132
:1004900086810E944203112319F0F301178603C0DD
:1004A00080E1F301878720E041E060E1C301DF9153
:1004B000CF911F910F91EF90CF90AF908F907F9041
:1004C0006F900C94AF018F92AF92CF92EF920F93F7
:1004D000DC0113961C921E921297E5E1F1E0ED9378
:1004E000FC931F921F921F921F928C2CAE2CC02E39
:1004F000E22E042F2FEF462F61E00E941D020F9085
:100500000F900F900F900F91EF90CF90AF908F9032
:1005100008951F920F920FB60F9211242F933F93BD
:100520008F939F93AF93BF9380912F019091300150
:10053000A0913101B091320130913701232F2D5F0D
:100540002D3720F40196A11DB11D05C0232F2A5778
:100550000296A11DB11D2093370180932F01909326
:100560003001A0933101B093320180913301909119
:100570003401A0913501B09136010196A11DB11D44
:100580008093330190933401A0933501B0933601E9
:10059000BF91AF919F918F913F912F910F900FBE7F
:1005A0000F901F901895019739F0880F991F880FA9
:1005B000991F02970197F1F70895789484B58260A6
:1005C00084BD84B5816084BD85B5826085BD85B5F7
:1005D000816085BDEEE6F0E0808181608083E1E8A6
:1005E000F0E01082808182608083808181608083DE
:1005F000E0E8F0E0808181608083E1EBF0E08081E1
:1006000084608083E0EBF0E0808181608083EAE7B2
:10061000F0E080818460808380818260808380813B
:10062000816080838081806880831092C1000895FA
:10063000833069F028F48130A1F0823011F514C0C4
:100640008630B1F08730C1F08430D9F404C0809195
:1006500080008F7703C0809180008F7D8093800021
:10066000089584B58F7702C084B58F7D84BD0895C9
:100670008091B0008F7703C08091B0008F7D809310
:10068000B0000895CF93DF9390E0FC01E458FF4F52
:100690004491FC01E057FF4F8491882341F190E0A1
:1006A000880F991FFC01E255FF4F25913491D90124
:1006B0008C559F4FFC0185919491C82FD92F9FB7DE
:1006C000F8948C91611106C0409584238C938881A5
:1006D000842308C0623041F4242F209582238C9318
:1006E0008881842B888302C0842B8C939FBFDF91E9
:1006F000CF9108950F931F93CF93DF931F92CDB7A0
:10070000DEB7282F30E0F901E859FF4F8491F90155
:10071000E458FF4F1491F901E057FF4F0491002373
:10072000D1F0882321F069830E9418036981E02FAA
:10073000F0E0EE0FFF1FEC55FF4F85919491DC0127
:100740009FB7F8948C91611103C01095812301C06B
:10075000812B8C939FBF0F90DF91CF911F910F91B1
:100760000895F8940C94BA03EE0FFF1F0590F491CE
:08077000E02D0994F894FFCF7D
:100778004F42414D4120564941444F205341544333
:0A07880000000000009701A8000027
:00000001FF
