:100000000C945D000C9485000C9485000C94850084
:100010000C9485000C9485000C9485000C9485004C
:100020000C9485000C9485000C9485000C9485003C
:100030000C9485000C9485000C9485000C9485002C
:100040000C94C7000C9485000C9485000C948500DA
:100050000C9485000C9485000C9485000C9485000C
:100060000C9485000C94850000000007000201003C
:100070000003040600000000000000000102040864
:100080001020408001020408102001020408102002
:10009000040404040404040402020202020203032E
:1000A0000303030300000000250028002B000000CC
:1000B0000000240027002A00B40011241FBECFEF47
:1000C000D8E0DEBFCDBF11E0A0E0B1E0E0EBF8E0AA
:1000D00002C005900D92A631B107D9F711E0A6E153
:1000E000B1E001C01D92A433B107E1F710E0CAEB03
:1000F000D0E004C02297FE010E945204C83BD10701
:10010000C9F70E9479020C944D040C94000061E040
:1001100083E00E94D00120E042E060E186E191E0CE
:100120000C94730361E083E00E94080240E060E009
:1001300086E191E00E943F0368E071E086E191E092
:100140000E94770264EF71E080E090E00E943B0142
:1001500041E060E086E191E00E943F0368E071E0E9
:1001600086E191E00C947702CF92EF920F938DE0AD
:10017000C82E9CE0E92E0BE02AE049E068E086E129
:1001800091E00E9427040F91EF90CF9008951F9265
:100190000F920FB60F9211242F933F938F939F933B
:1001A000AF93BF9380912B0190912C01A0912D01D1
:1001B000B0912E0130913301232F2D5F2D3720F484
:1001C0000196A11DB11D05C0232F2A570296A11D1E
:1001D000B11D2093330180932B0190932C01A093A8
:1001E0002D01B0932E0180912F0190913001A091AB
:1001F0003101B09132010196A11DB11D80932F01F3
:1002000090933001A0933101B0933201BF91AF912F
:100210009F918F913F912F910F900FBE0F901F9044
:1002200018950F931F939FB7F89400912F01109189
:100230003001209131013091320186B5A89B06C072
:100240008F3F21F00F5F1F4F2F4F3F4F9FBF322F28
:10025000212F102F0027080F111D211D311D42E0F5
:10026000000F111F221F331F4A95D1F7B801C90192
:100270001F910F910895CF92DF92EF92FF92CF934B
:10028000DF936B017C010E941101EB010EC00E9403
:1002900011016C1B7D0B683E734038F081E0C81A79
:1002A000D108E108F108C851DC4FC114D104E104C0
:1002B000F10469F7DF91CF91FF90EF90DF90CF903D
:1002C0000895019739F0880F991F880F991F029799
:1002D0000197F1F70895789484B5826084BD84B560
:1002E000816084BD85B5826085BD85B5816085BD31
:1002F000EEE6F0E0808181608083E1E8F0E010824A
:10030000808182608083808181608083E0E8F0E08A
:10031000808181608083E1EBF0E080818460808374
:10032000E0EBF0E0808181608083EAE7F0E08081AB
:10033000846080838081826080838081816080830B
:100340008081806880831092C1000895833069F0B5
:1003500028F48130A1F0823011F514C08630B1F05C
:100360008730C1F08430D9F404C0809180008F7749
:1003700003C0809180008F7D80938000089584B5B4
:100380008F7702C084B58F7D84BD08958091B000C1
:100390008F7703C08091B0008F7D8093B000089567
:1003A000CF93DF9390E0FC01E458FF4F4491FC01B0
:1003B000E057FF4F8491882341F190E0880F991F07
:1003C000FC01E255FF4F25913491D9018C559F4F87
:1003D000FC0185919491C82FD92F9FB7F8948C91E7
:1003E000611106C0409584238C938881842308C0C2
:1003F000623041F4242F209582238C938881842BB2
:10040000888302C0842B8C939FBFDF91CF91089586
:100410000F931F93CF93DF931F92CDB7DEB7282F93
:1004200030E0F901E859FF4F8491F901E458FF4F9A
:100430001491F901E057FF4F04910023D1F0882374
:1004400021F069830E94A6016981E02FF0E0EE0FA0
:10045000FF1FEC55FF4F85919491DC019FB7F894F5
:100460008C91611103C01095812301C0812B8C9365
:100470009FBF0F90DF91CF911F910F910895CF9261
:10048000DF92EF92FF920F931F93CF93DF936C0154
:10049000EB017A01E60EF71E00E010E00BC0699157
:1004A000D601ED91FC910190F081E02DC6010995F6
:1004B000080F191FCE15DF0591F7C801DF91CF9105
:1004C0001F910F91FF90EF90DF90CF900895DB0187
:1004D0000D900020E9F7AD0141505109461B570B23
:1004E000DC01ED91FC910280F381E02D09940C94E4
:1004F00067020E946B010E948700C0E0D0E00E946A
:1005000092002097E1F30E940000F9CFCF93DF9390
:10051000EC0160E08E810E94080281E090E00E9480
:10052000610161E08E810E94080281E090E00E94FA
:10053000610160E08E810E94080284E690E0DF9114
:10054000CF910C946101CF92DF92EF92FF920F93C3
:100550001F93CF93DF937C01C0E0D0E0C62ED12C57
:1005600087010C0F1D1F61E0F80187810E94D001F7
:10057000B6010C2E02C0759567950A94E2F761707A
:100580007727F80187810E9408022196C430D1059F
:1005900039F7C701DF91CF911F910F91FF90EF9035
:1005A000DF90CF900C948602CF92DF92EF92FF9271
:1005B0000F931F93CF93DF937C01C0E0D0E0C62E52
:1005C000D12C87010C0F1D1F61E0F80187810E946B
:1005D000D001B6010C2E02C0759567950A94E2F71A
:1005E00061707727F80187810E9408022196C83040
:1005F000D10539F7C701DF91CF911F910F91FF907E
:10060000EF90DF90CF900C9486021F93CF93DF93EF
:10061000EC01162F642F8C810E9408028D818F3F80
:1006200019F060E00E9408028F85612F84FF06C0E8
:10063000CE01DF91CF911F910C94D40270E084E041
:10064000759567958A95E1F7CE010E94A302612F07
:10065000CE01DF91CF911F910C94A30241E00E9443
:10066000050381E090E0089540E00C940503FC014F
:100670006089262F2460208B6C600C943403CF9308
:10068000DF93CDB7DEB728970FB6F894DEBF0FBE65
:10069000CDBF28E0E0E0F1E0DE01119601900D927F
:1006A0002A95E1F7FC012389421710F0422F4150AF
:1006B000FE013196E40FF11DE40FF11D2081260F9C
:1006C0002068622F28960FB6F894DEBF0FBECDBF0C
:1006D000DF91CF910C94340361E00E94340380EDEC
:1006E00097E00C946101CF93DF93EC01423018F056
:1006F0008F8588608F874B8B1C8A222329F041309D
:1007000019F48F8584608F8780E593EC0E946101E6
:1007100060E08C810E94080260E08E810E940802E5
:100720008D818F3F19F060E00E9408026F8564FDA3
:100730001DC063E0CE010E94A30284E991E10E9402
:10074000610163E0CE010E94A30284E991E10E946D
:10075000610163E0CE010E94A30286E990E00E945D
:10076000610162E0CE010E94A30216C06062CE0168
:100770000E94340384E991E10E9461016F85606207
:10078000CE010E94340386E990E00E9461016F85EA
:100790006062CE010E9434036F856062CE010E94C8
:1007A000340384E0888BCE010E943703CE010E947F
:1007B0006C0382E0898B66E0CE01DF91CF910C94CF
:1007C00034036F927F928F92AF92CF92EF920F93FA
:1007D0001F93CF93DF93CDB7DEB73C01162F842F45
:1007E0005D854E853F859889F30184832583068343
:1007F000E782C086A186828653874487358796879D
:1008000061E00E94D001F30185818F3F19F061E022
:100810000E94D00161E0F30186810E94D001112382
:1008200019F0F301178603C080E1F301878720E008
:1008300041E060E1C301DF91CF911F910F91EF90F3
:10084000CF90AF908F907F906F900C9473038F92A6
:10085000AF92CF92EF920F93DC0113961C921E92EF
:100860001297E1E1F1E0ED93FC931F921F921F922A
:100870001F928C2CAE2CC02EE22E042F2FEF462F71
:1008800061E00E94E1030F900F900F900F900F9185
:10089000EF90CF90AF908F900895F8940C945604F9
:1008A000EE0FFF1F0590F491E02D0994F894FFCF0F
:1008B00000004000140054006EC3A36F000000004D
:0608C000002E033F0200C0
:00000001FF
