:100000000C9461000C9473000C9473000C947300B6
:100010000C9473000C9473000C9473000C94730094
:100020000C9473000C9473000C9473000C94730084
:100030000C9473000C9473000C9473000C94730074
:100040000C9453010C9473000C9473000C94730083
:100050000C9473000C9473000C9473000C94730054
:100060000C9473000C947300000000070002010060
:100070000003040600000000000000000102040864
:100080001020408001020408102001020408102002
:10009000040404040404040402020202020203032E
:1000A00003030303000000002300260029000000D2
:1000B0000000250028002B0000000000240027007D
:1000C0002A0011241FBECFEFD8E0DEBFCDBF11E064
:1000D000A0E0B1E001C01D92A930B107E1F70E9494
:1000E00046010C94D8010C94000060E080E00E946E
:1000F000AE0061E081E00C94AE0080E00E941D0142
:10010000682F81E00C94E600833069F028F4813098
:10011000A1F0823011F514C08630B1F08730C1F003
:100120008430D9F404C0809180008F7703C080911F
:1001300080008F7D80938000089584B58F7702C002
:1001400084B58F7D84BD08958091B0008F7703C002
:100150008091B0008F7D8093B0000895CF93DF939E
:1001600090E0FC01E458FF4F4491FC01E057FF4F41
:100170008491882341F190E0880F991FFC01E85495
:10018000FF4F25913491D90182559F4FFC018591F4
:100190009491C82FD92F9FB7F8948C91611106C004
:1001A000409584238C938881842308C0623041F475
:1001B000242F209582238C938881842B888302C0EE
:1001C000842B8C939FBFDF91CF9108950F931F9342
:1001D000CF93DF931F92CDB7DEB7282F30E0F90120
:1001E000E859FF4F8491F901E458FF4F1491F90148
:1001F000E057FF4F04910023D1F0882321F0698359
:100200000E9484006981E02FF0E0EE0FFF1FE255AD
:10021000FF4F85919491DC019FB7F8948C91611107
:1002200003C01095812301C0812B8C939FBF0F9039
:10023000DF91CF911F910F910895CF93DF93282FD6
:1002400030E0F901E859FF4F8491F901E458FF4F7C
:10025000D491F901E057FF4FC491CC2389F081116B
:100260000E948400EC2FF0E0EE0FFF1FEC55FF4FD3
:1002700085919491DC018C918D2321E030E011F483
:1002800020E030E0C901DF91CF9108950E949D01E7
:100290000E947500C0E0D0E00E947D002097E1F34D
:1002A0000E940000F9CF1F920F920FB60F921124F7
:1002B0002F933F938F939F93AF93BF9380910001B0
:1002C00090910101A0910201B091030130910801C8
:1002D000232F2D5F2D3720F40196A11DB11D05C0E0
:1002E000232F2A570296A11DB11D20930801809348
:1002F000000190930101A0930201B093030180914A
:10030000040190910501A0910601B09107010196A9
:10031000A11DB11D8093040190930501A0930601D6
:10032000B0930701BF91AF919F918F913F912F9112
:100330000F900FBE0F901F901895789484B582602F
:1003400084BD84B5816084BD85B5826085BD85B579
:10035000816085BDEEE6F0E0808181608083E1E828
:10036000F0E0108280818260808380818160808360
:10037000E0E8F0E0808181608083E1EBF0E0808163
:1003800084608083E0EBF0E0808181608083EAE735
:10039000F0E08081846080838081826080838081BE
:1003A000816080838081806880831092C10008957D
:0A03B000F8940C94DB01F894FFCFE1
:00000001FF
