:100000000C945D000C9485000C9485000C94850084
:100010000C9485000C9485000C9485000C9485004C
:100020000C9485000C9485000C9485000C9485003C
:100030000C9485000C9485000C9485000C9485002C
:100040000C94FF000C9485000C9485000C948500A2
:100050000C9485000C9485000C9485000C9485000C
:100060000C9485000C94850000000007000201003C
:100070000003040600000000000000000102040864
:100080001020408001020408102001020408102002
:10009000040404040404040402020202020203032E
:1000A0000303030300000000250028002B000000CC
:1000B0000000240027002A00EC0011241FBECFEF0F
:1000C000D8E0DEBFCDBF11E0A0E0B1E0E0E2F9E0B2
:1000D00002C005900D92AA31B107D9F711E0AAE14B
:1000E000B1E001C01D92A833B107E1F710E0CAEBFF
:1000F000D0E004C02297FE010E948A04C83BD107C9
:10010000C9F70E94B1020C9485040C94000020E011
:1001100042E060E18AE191E00E94AB0361E082E0AD
:100120000E94080261E083E00E94080261E084E02E
:100130000E94080261E085E00C9408028AE191E0E7
:100140000E94A40340E060E08AE191E00E9477030E
:1001500068EE73E080E090E00E94730168E071E077
:100160008AE191E00E94AF0261E082E00E944002D9
:1001700068EE73E080E090E00E94730160E082E04E
:100180000E94400261E083E00E94400268EE73E05A
:1001900080E090E00E94730160E083E00E944002F2
:1001A00061E084E00E94400268EE73E080E090E04D
:1001B0000E94730160E084E00E94400261E085E0FB
:1001C0000E94400268EE73E080E090E00E947301BC
:1001D00060E085E00C944002CF92EF920F938DE0A7
:1001E000C82E9CE0E92E0BE02AE049E068E08AE1B5
:1001F00091E00E945F040F91EF90CF9008951F92BD
:100200000F920FB60F9211242F933F938F939F93CA
:10021000AF93BF9380912F0190913001A091310154
:10022000B091320130913701232F2D5F2D3720F40B
:100230000196A11DB11D05C0232F2A570296A11DAD
:10024000B11D2093370180932F0190933001A0932B
:100250003101B09332018091330190913401A0912A
:100260003501B09136010196A11DB11D8093330176
:1002700090933401A0933501B0933601BF91AF91B3
:100280009F918F913F912F910F900FBE0F901F90D4
:1002900018950F931F939FB7F89400913301109115
:1002A0003401209135013091360186B5A89B06C0F6
:1002B0008F3F21F00F5F1F4F2F4F3F4F9FBF322FB8
:1002C000212F102F0027080F111D211D311D42E085
:1002D000000F111F221F331F4A95D1F7B801C90122
:1002E0001F910F910895CF92DF92EF92FF92CF93DB
:1002F000DF936B017C010E944901EB010EC00E945B
:1003000049016C1B7D0B683E734038F081E0C81AD0
:10031000D108E108F108C851DC4FC114D104E1044F
:10032000F10469F7DF91CF91FF90EF90DF90CF90CC
:100330000895019739F0880F991F880F991F029728
:100340000197F1F70895789484B5826084BD84B5EF
:10035000816084BD85B5826085BD85B5816085BDC0
:10036000EEE6F0E0808181608083E1E8F0E01082D9
:10037000808182608083808181608083E0E8F0E01A
:10038000808181608083E1EBF0E080818460808304
:10039000E0EBF0E0808181608083EAE7F0E080813B
:1003A000846080838081826080838081816080839B
:1003B0008081806880831092C1000895833069F045
:1003C00028F48130A1F0823011F514C08630B1F0EC
:1003D0008730C1F08430D9F404C0809180008F77D9
:1003E00003C0809180008F7D80938000089584B544
:1003F0008F7702C084B58F7D84BD08958091B00051
:100400008F7703C08091B0008F7D8093B0000895F6
:10041000CF93DF9390E0FC01E458FF4F4491FC013F
:10042000E057FF4F8491882341F190E0880F991F96
:10043000FC01E255FF4F25913491D9018C559F4F16
:10044000FC0185919491C82FD92F9FB7F8948C9176
:10045000611106C0409584238C938881842308C051
:10046000623041F4242F209582238C938881842B41
:10047000888302C0842B8C939FBFDF91CF91089516
:100480000F931F93CF93DF931F92CDB7DEB7282F23
:1004900030E0F901E859FF4F8491F901E458FF4F2A
:1004A0001491F901E057FF4F04910023D1F0882304
:1004B00021F069830E94DE016981E02FF0E0EE0FF8
:1004C000FF1FEC55FF4F85919491DC019FB7F89485
:1004D0008C91611103C01095812301C0812B8C93F5
:1004E0009FBF0F90DF91CF911F910F910895CF92F1
:1004F000DF92EF92FF920F931F93CF93DF936C01E4
:10050000EB017A01E60EF71E00E010E00BC06991E6
:10051000D601ED91FC910190F081E02DC601099585
:10052000080F191FCE15DF0591F7C801DF91CF9194
:100530001F910F91FF90EF90DF90CF900895DB0116
:100540000D900020E9F7AD0141505109461B570BB2
:10055000DC01ED91FC910280F381E02D09940C9473
:100560009F020E94A3010E948700C0E0D0E00E9489
:100570009E002097E1F30E940000F9CFCF93DF9314
:10058000EC0160E08E810E94400281E090E00E94D8
:10059000990161E08E810E94400281E090E00E941A
:1005A000990160E08E810E94400284E690E0DF9134
:1005B000CF910C949901CF92DF92EF92FF920F931B
:1005C0001F93CF93DF937C01C0E0D0E0C62ED12CE7
:1005D00087010C0F1D1F61E0F80187810E9408024E
:1005E000B6010C2E02C0759567950A94E2F761700A
:1005F0007727F80187810E9440022196C430D105F7
:1006000039F7C701DF91CF911F910F91FF90EF90C4
:10061000DF90CF900C94BE02CF92DF92EF92FF92C8
:100620000F931F93CF93DF937C01C0E0D0E0C62EE1
:10063000D12C87010C0F1D1F61E0F80187810E94FA
:100640000802B6010C2E02C0759567950A94E2F770
:1006500061707727F80187810E9440022196C83097
:10066000D10539F7C701DF91CF911F910F91FF900D
:10067000EF90DF90CF900C94BE021F93CF93DF9347
:10068000EC01162F642F8C810E9440028D818F3FD8
:1006900019F060E00E9440028F85612F84FF06C040
:1006A000CE01DF91CF911F910C940C0370E084E098
:1006B000759567958A95E1F7CE010E94DB02612F5F
:1006C000CE01DF91CF911F910C94DB0241E00E949B
:1006D0003D0381E090E0089540E00C943D03FC016F
:1006E0006089262F2460208B6C600C946C03CF9360
:1006F000DF93CDB7DEB728970FB6F894DEBF0FBEF5
:10070000CDBF28E0E0E0F1E0DE01119601900D920E
:100710002A95E1F7FC012389421710F0422F41503E
:10072000FE013196E40FF11DE40FF11D2081260F2B
:100730002068622F28960FB6F894DEBF0FBECDBF9B
:10074000DF91CF910C946C0361E00E946C0380ED0B
:1007500097E00C949901CF93DF93EC01423018F0AD
:100760008F8588608F874B8B1C8A222329F041302C
:1007700019F48F8584608F8780E593EC0E9499013E
:1007800060E08C810E94400260E08E810E94400205
:100790008D818F3F19F060E00E9440026F8564FDFB
:1007A0001DC063E0CE010E94DB0284E991E10E945A
:1007B000990163E0CE010E94DB0284E991E10E948D
:1007C000990163E0CE010E94DB0286E990E00E947D
:1007D000990162E0CE010E94DB0216C06062CE0188
:1007E0000E946C0384E991E10E9499016F85606227
:1007F000CE010E946C0386E990E00E9499016F850A
:100800006062CE010E946C036F856062CE010E941F
:100810006C0384E0888BCE010E946F03CE010E949E
:10082000A40382E0898B66E0CE01DF91CF910C9426
:100830006C036F927F928F92AF92CF92EF920F9351
:100840001F93CF93DF93CDB7DEB73C01162F842FD4
:100850005D854E853F859889F301848325830683D2
:10086000E782C086A186828653874487358796872C
:1008700061E00E940802F30185818F3F19F061E079
:100880000E94080261E0F30186810E9408021123A0
:1008900019F0F301178603C080E1F301878720E098
:1008A00041E060E1C301DF91CF911F910F91EF9083
:1008B000CF90AF908F907F906F900C94AB038F92FE
:1008C000AF92CF92EF920F93DC0113961C921E927F
:1008D0001297E6E1F1E0ED93FC931F921F921F92B5
:1008E0001F928C2CAE2CC02EE22E042F2FEF462F01
:1008F00061E00E9419040F900F900F900F900F91DC
:10090000EF90CF90AF908F900895F8940C948E0450
:10091000EE0FFF1F0590F491E02D0994F894FFCF9E
:100920000000400014005400416C6F204661626971
:0A0930006F0000000000660377026C
:00000001FF
