:100000000C945D000C9485000C9485000C94850084
:100010000C9485000C9485000C9485000C9485004C
:100020000C9485000C9485000C9485000C9485003C
:100030000C9485000C9485000C9485000C9485002C
:100040000C9488020C9485000C9485000C94850017
:100050000C9485000C9485000C9485000C9485000C
:100060000C9485000C94850000000007000201003C
:100070000003040600000000000000000102040864
:100080001020408001020408102001020408102002
:10009000040404040404040402020202020203032E
:1000A0000303030300000000250028002B000000CC
:1000B0000000240027002A00940011241FBECFEF67
:1000C000D8E0DEBFCDBF11E0A0E0B1E0E6E7F7E0A9
:1000D00002C005900D92A431B107D9F711E0A4E157
:1000E000B1E001C01D92A233B107E1F710E0CAEB05
:1000F000D0E004C02297FE010E94B503C83BD1079F
:10010000C9F70E94E1000C94B0030C94000020E0B9
:1001100042E060E184E191E00C94AE0160E071E0C6
:1001200084E191E00C94DF00CF92EF920F938DE089
:10013000C82E9CE0E92E0BE02AE049E068E084E16B
:1001400091E00E9462020F91EF90CF900895CF92BC
:10015000DF92EF92FF920F931F93CF93DF936C0187
:10016000EB017A01E60EF71E00E010E00BC069918A
:10017000D601ED91FC910190F081E02DC601099529
:10018000080F191FCE15DF0591F7C801DF91CF9138
:100190001F910F91FF90EF90DF90CF900895DB01BA
:1001A0000D900020E9F7AD0141505109461B570B56
:1001B000DC01ED91FC910280F381E02D09940C9417
:1001C000CF000E94DC020E948700C0E0D0E00E94C5
:1001D0008E002097E1F30E940000F9CFCF93DF93C8
:1001E000EC0160E08E810E94790381E090E00E9442
:1001F000D20261E08E810E94790381E090E00E944A
:10020000D20260E08E810E94790384E690E0DF9163
:10021000CF910C94D202CF92DF92EF92FF920F9384
:100220001F93CF93DF937C01C0E0D0E0C62ED12C8A
:1002300087010C0F1D1F61E0F80187810E944103B7
:10024000B6010C2E02C0759567950A94E2F76170AD
:100250007727F80187810E9479032196C430D10560
:1002600039F7C701DF91CF911F910F91FF90EF9068
:10027000DF90CF900C94EE00CF92DF92EF92FF923E
:100280000F931F93CF93DF937C01C0E0D0E0C62E85
:10029000D12C87010C0F1D1F61E0F80187810E949E
:1002A0004103B6010C2E02C0759567950A94E2F7DA
:1002B00061707727F80187810E9479032196C83001
:1002C000D10539F7C701DF91CF911F910F91FF90B1
:1002D000EF90DF90CF900C94EE001F93CF93DF93BD
:1002E000EC01162F642F8C810E9479038D818F3F42
:1002F00019F060E00E9479038F85612F84FF06C0AA
:10030000CE01DF91CF911F910C943C0170E084E00D
:10031000759567958A95E1F7CE010E940B01612FD3
:10032000CE01DF91CF911F910C940B0141E00E940F
:100330006D0181E090E0089540E00C946D01FC01B6
:100340006089262F2460208B6C600C949C0161E0F6
:100350000E949C0180ED97E00C94D202CF93DF9332
:10036000EC01423018F08F8588608F874B8B1C8A98
:10037000222329F0413019F48F8584608F8780E52E
:1003800093EC0E94D20260E08C810E94790360E0CD
:100390008E810E9479038D818F3F19F060E00E9469
:1003A00079036F8564FD1DC063E0CE010E940B01DF
:1003B00084E991E10E94D20263E0CE010E940B0128
:1003C00084E991E10E94D20263E0CE010E940B0118
:1003D00086E990E00E94D20262E0CE010E940B0109
:1003E00016C06062CE010E949C0184E991E10E94E6
:1003F000D2026F856062CE010E949C0186E990E086
:100400000E94D2026F856062CE010E949C016F85BE
:100410006062CE010E949C0184E0888BCE010E9424
:100420009F01CE010E94A70182E0898B66E0CE0188
:10043000DF91CF910C949C016F927F928F92AF923B
:10044000CF92EF920F931F93CF93DF93CDB7DEB789
:100450003C01162F842F5D854E853F859889F301D9
:10046000848325830683E782C086A186828653879C
:1004700044873587968761E00E944103F3018581B7
:100480008F3F19F061E00E94410361E0F301868132
:100490000E944103112319F0F301178603C080E184
:1004A000F301878720E041E060E1C301DF91CF9154
:1004B0001F910F91EF90CF90AF908F907F906F90A2
:1004C0000C94AE018F92AF92CF92EF920F93DC011A
:1004D00013961C921E921297E0E1F1E0ED93FC93CB
:1004E0001F921F921F921F928C2CAE2CC02EE22EB8
:1004F000042F2FEF462F61E00E941C020F900F90F7
:100500000F900F900F91EF90CF90AF908F90089534
:100510001F920F920FB60F9211242F933F938F9338
:100520009F93AF93BF938091290190912A01A0914D
:100530002B01B0912C0130913101232F2D5F2D37EC
:1005400020F40196A11DB11D05C0232F2A57029644
:10055000A11DB11D209331018093290190932A019F
:10056000A0932B01B0932C0180912D0190912E012D
:10057000A0912F01B09130010196A11DB11D809372
:100580002D0190932E01A0932F01B0933001BF91C4
:10059000AF919F918F913F912F910F900FBE0F9030
:1005A0001F901895019739F0880F991F880F991F90
:1005B00002970197F1F70895789484B5826084BD1D
:1005C00084B5816084BD85B5826085BD85B5816057
:1005D00085BDEEE6F0E0808181608083E1E8F0E0B7
:1005E0001082808182608083808181608083E0E8E6
:1005F000F0E0808181608083E1EBF0E080818460C5
:100600008083E0EBF0E0808181608083EAE7F0E0C6
:10061000808184608083808182608083808181602A
:1006200080838081806880831092C1000895833028
:1006300069F028F48130A1F0823011F514C08630C1
:10064000B1F08730C1F08430D9F404C080918000CB
:100650008F7703C0809180008F7D80938000089504
:1006600084B58F7702C084B58F7D84BD0895809155
:10067000B0008F7703C08091B0008F7D8093B00071
:100680000895CF93DF9390E0FC01E458FF4F44912D
:10069000FC01E057FF4F8491882341F190E0880FDF
:1006A000991FFC01E255FF4F25913491D9018C55DA
:1006B0009F4FFC0185919491C82FD92F9FB7F89433
:1006C0008C91611106C0409584238C93888184238A
:1006D00008C0623041F4242F209582238C938881B6
:1006E000842B888302C0842B8C939FBFDF91CF9192
:1006F00008950F931F93CF93DF931F92CDB7DEB76B
:10070000282F30E0F901E859FF4F8491F901E458AE
:10071000FF4F1491F901E057FF4F04910023D1F0EE
:10072000882321F069830E9417036981E02FF0E09C
:10073000EE0FFF1FEC55FF4F85919491DC019FB7A1
:10074000F8948C91611103C01095812301C0812B15
:100750008C939FBF0F90DF91CF911F910F910895C0
:10076000F8940C94B903EE0FFF1F0590F491E02D5F
:060770000994F894FFCF8C
:100776004F42414D4120564941444F000000000080
:040786009601A70031
:00000001FF
