:100000000C945E000C9486000C9486000C94860080
:100010000C9486000C9486000C9486000C94860048
:100020000C9486000C9486000C9486000C94860038
:100030000C9486000C9486000C9486000C94860028
:100040000C942E020C9486000C9486000C9486006E
:100050000C9486000C9486000C9486000C94860008
:100060000C9486000C94860000000007000201003A
:100070000003040600000000000000000102040864
:100080001020408001020408102001020408102002
:10009000040404040404040402020202020203032E
:1000A0000303030300000000250028002B000000CC
:1000B0000000240027002A00BD00C30011241FBE39
:1000C000CFEFD8E0DEBFCDBF11E0A0E0B1E0EEE1C0
:1000D000FAE002C005900D92A830B107D9F711E0FF
:1000E000A8E0B1E001C01D92AC31B107E1F710E02A
:1000F000CAEBD0E004C02297FE010E94FE04C83B78
:10010000D107C9F70E9421020C94B2040C9400009C
:1001100061E08DE00C94F1000F931F93CF93DF9378
:10012000CDB7DEB727970FB6F894DEBF0FBECDBFB1
:100130000AE010E066E071E0CE0101960E94D10174
:10014000BE016F5F7F4F88E091E00E941A02CE01EE
:1001500001960E9460010150110961F761E08DE094
:100160000E94290127960FB6F894DEBF0FBECDBFBF
:10017000DF91CF911F910F91089566E071E088E0C3
:1001800091E00C94D10188E091E00C9460018330FF
:1001900069F028F48130A1F0823011F514C0863066
:1001A000B1F08730C1F08430D9F404C08091800070
:1001B0008F7703C0809180008F7D809380000895A9
:1001C00084B58F7702C084B58F7D84BD08958091FA
:1001D000B0008F7703C08091B0008F7D8093B00016
:1001E0000895CF93DF9390E0FC01E458FF4F4491D2
:1001F000FC01E057FF4F8491882341F190E0880F84
:10020000991FFC01E255FF4F25913491D9018C557E
:100210009F4FFC0185919491C82FD92F9FB7F894D7
:100220008C91611106C0409584238C93888184232E
:1002300008C0623041F4242F209582238C9388815A
:10024000842B888302C0842B8C939FBFDF91CF9136
:1002500008950F931F93CF93DF931F92CDB7DEB70F
:10026000282F30E0F901E859FF4F8491F901E45853
:10027000FF4F1491F901E057FF4F04910023D1F093
:10028000882321F069830E94C7006981E02FF0E094
:10029000EE0FFF1FEC55FF4F85919491DC019FB746
:1002A000F8948C91611103C01095812301C0812BBA
:1002B0008C939FBF0F90DF91CF911F910F91089565
:1002C000FC01808191810C944E03CF93DF93EC016C
:1002D00088819981009711F00E944E03198218823B
:1002E0001D821C821B821A82DF91CF9108950F9389
:1002F0001F93CF93DF93EC018B016F5F7F4F88815A
:1003000099810E94EA03009731F0998388831B83C7
:100310000A8381E001C080E0DF91CF911F910F91AE
:100320000895CF93DF93EC0188819981892B31F077
:100330008A819B818617970708F00CC0CE010E9426
:100340007701882349F08C819D81892B19F4E881FC
:10035000F981108281E001C080E0DF91CF910895A2
:10036000EF92FF920F931F93CF93DF93EC017B01EA
:100370008A01BA010E949101811104C0CE010E943C
:10038000650107C01D830C83B701888199810E9494
:10039000BE04CE01DF91CF911F910F91FF90EF909E
:1003A0000895DC0111961C921E9213961C921E92C7
:1003B000129715961C921E92149716961C92611510
:1003C000710559F0DB010D900020E9F7AD014150B6
:1003D0005109461B570B0C94B0010895EF92FF9200
:1003E0000F931F93CF93DF93EC017B010C811D8151
:1003F0006115710511F480E016C04115510591F0A9
:10040000040F151FB8010E9491018823A1F32881D0
:1004100039818C819D81B701820F931F0E94BE0498
:100420001D830C8381E0DF91CF911F910F91FF908D
:10043000EF900895FB0144815581608171810C9496
:10044000EE010E9478020E948800C0E0D0E00E9485
:100450008C002097E1F30E940000F9CF1F920F92C9
:100460000FB60F9211242F933F938F939F93AF93C7
:10047000BF9380910F0190911001A0911101B09153
:10048000120130911701232F2D5F2D3720F4019693
:10049000A11DB11D05C0232F2A570296A11DB11D14
:1004A0002093170180930F0190931001A0931101E5
:1004B000B09312018091130190911401A091150144
:1004C000B09116010196A11DB11D80931301909367
:1004D0001401A0931501B0931601BF91AF919F91A4
:1004E0008F913F912F910F900FBE0F901F901895F5
:1004F000789484B5826084BD84B5816084BD85B5FF
:10050000826085BD85B5816085BDEEE6F0E08081C5
:1005100081608083E1E8F0E01082808182608083E6
:10052000808181608083E0E8F0E080818160808369
:10053000E1EBF0E0808184608083E0EBF0E080819B
:1005400081608083EAE7F0E080818460808380813D
:1005500082608083808181608083808180688083E5
:100560001092C10008950F931F93CF93DF938230B1
:10057000910510F482E090E0E0911A01F0911B01E6
:1005800020E030E0C0E0D0E023C040815181481736
:100590005907A8F04817590761F482819381209781
:1005A00019F09B838A832EC090931B0180931A01BC
:1005B00029C02115310529F04217530710F0A90170
:1005C00002C0BE01DF0102811381EF019A01F8012F
:1005D0003097D9F62115310509F1281B390B243044
:1005E000310590F412968D919C91139761157105C8
:1005F00021F0FB019383828304C090931B018093BD
:100600001A01FD01329644C0FD01E20FF31F8193F0
:100610009193225031092D933C933AC020911801B7
:1006200030911901232B41F42091020130910301F3
:10063000309319012093180120910001309101019C
:100640002115310541F42DB73EB740910401509179
:100650000501241B350BE0911801F0911901E217F7
:10066000F307A0F42E1B3F0B2817390778F0AC01D5
:100670004E5F5F4F2417350748F04E0F5F1F5093B2
:100680001901409318018193919302C0E0E0F0E0DA
:10069000CF01DF91CF911F910F910895EF92FF92BB
:1006A0000F931F93CF93DF93009709F48EC0DC0163
:1006B000129713961C921E921297E0901A01F090D6
:1006C0001B01E114F10489F42D913C911197280F3D
:1006D000391F80911801909119018217930789F5AC
:1006E000B0931901A093180170C0E70120E030E039
:1006F00001C0EA01CA17DB0738F44A815B819E0119
:1007000041155105B1F722C0AC0142505109FA011F
:10071000D383C28300811181BC01600F711F6C17EC
:100720007D0761F468817981600F711F6E5F7F4F73
:10073000718360836A817B817383628321153105B4
:1007400029F4B0931B01A0931A013FC0F901B383B0
:10075000A283E90149915991C40FD51FAC17BD0778
:1007600071F4DC019E918E91840F951F0296918306
:10077000808312968D919C91139793838283A0E03E
:10078000B0E002C0D7017C01F7018281938100971C
:10079000C9F7C701029620813181820F931F2091F2
:1007A0001801309119012817390779F4109729F4A5
:1007B00010921B0110921A0104C013961C921E92F3
:1007C0001297F0921901E0921801CDB7DEB7E6E07A
:1007D0000C94ED04A0E0B0E0E0EFF3E00C94CB0467
:1007E000EC01009729F4CB010E94B302EC01B4C0E4
:1007F000DC01A60FB71FFC013297AE17BF0718F434
:10080000C0E0D0E0A9C00081118106171707B0F041
:100810000530110508F4A0C0C80104978617970792
:1008200008F49AC002501109061B170B0D931D9373
:1008300071836083CD010E944E038EC06B01C01A8C
:10084000D10A7C01E00EF11EE0911A01F0911B012A
:1008500020E030E080E090E048C0EE15FF05D1F5E3
:1008600080809180540142E0A40EB11CAC14BD0400
:1008700088F17401EC18FD08670122E0C20ED11C5A
:100880009E012250310945E0C416D10478F042811E
:10089000538113965C934E9312971196FC92EE92AD
:1008A000F901718360833A2F2B2F09C00E5F1F4F10
:1008B000080D191DD9010D931C93328123810097D6
:1008C00021F0FC013283238347C030931A01209327
:1008D0001B0142C0808191812817390708F49C01CF
:1008E00052814381CF01E52FF42F309709F0B5CF26
:1008F00080911801909119018E159F05F1F426172A
:100900003707D8F48091000190910101009741F4DC
:100910008DB79EB72091040130910501821B930B86
:10092000A817B90708F06CCFB0931901A09318016C
:10093000FE013297718360830FC0CB010E94B30226
:100940007C01009709F45CCFA801BE010E94B504A8
:10095000CE010E944E03E701CE01CDB7DEB7ECE039
:100960000C94E704F8940C940205FB01DC0102C02E
:1009700001900D9241505040D8F70895FB01DC01E1
:1009800001900D920020E1F708952F923F924F922F
:100990005F926F927F928F929F92AF92BF92CF920F
:1009A000DF92EF92FF920F931F93CF93DF93CDB718
:1009B000DEB7CA1BDB0B0FB6F894DEBF0FBECDBF90
:1009C00009942A88398848885F846E847D848C8461
:1009D0009B84AA84B984C884DF80EE80FD800C816A
:1009E0001B81AA81B981CE0FD11D0FB6F894DEBF4D
:1009F0000FBECDBFED010895EE0FFF1F0590F491DE
:100A0000E02D099410E0CAEBD0E004C0FE010E9482
:0E0A1000FE042296CC3BD107C9F7F894FFCF25
:080A1E0000001C012000000093
:00000001FF
