:100000000C9462000C948A000C948A000C948A0070
:100010000C948A000C948A000C948A000C948A0038
:100020000C948A000C948A000C948A000C949D0213
:100030000C948A000C948A000C948A000C948A0018
:100040000C94F9000C948A000C948A000C948A0099
:100050000C948A000C948A000C948A000C948A00F8
:100060000C948A000C948A00000000070002010032
:100070000003040600000000000000000102040864
:100080001020408001020408102001020408102002
:10009000040404040404040402020202020203032E
:1000A00003030303000000002300260029000000D2
:1000B0000000250028002B0000000000240027007D
:1000C0002A00F50011241FBECFEFD8E0DEBFCDBF60
:1000D00011E0A0E0B1E0E4EAFAE002C005900D9280
:1000E000A030B107D9F711E0A0E0B1E001C01D9246
:1000F000A633B107E1F710E0C4ECD0E004C02297CA
:10010000FE010E944C05C23CD107C9F70E94900233
:100110000C94D6040C94000060E087E00E94F80183
:1001200066E070E080E091E00E94F80361E084E026
:100130000C94F80187E00E94670290930601809377
:10014000050110920401109203011FC080E091E0AC
:100150000E9431046FE070E080E090E00E946D0149
:100160008091050190910601892B11F461E001C095
:1001700060E084E00E9430028091030190910401CC
:1001800001969093040180930301609103017091A3
:100190000401653B7105D4F284EB90E01BC080E064
:1001A00091E00E9431046FE070E080E090E00E94F6
:1001B0006D018091050190910601892B11F461E098
:1001C00001C060E084E00E943002809103019091C0
:1001D000040101979093040180930301609103014E
:1001E0007091040177FFDBCF089580E091E00C94DB
:1001F0005B031F920F920FB60F9211242F933F9320
:100200008F939F93AF93BF938091070190910801C3
:10021000A0910901B0910A0130910F01232F2D5FA8
:100220002D3720F40196A11DB11D05C0232F2A579B
:100230000296A11DB11D20930F0180930701909399
:100240000801A0930901B0930A0180910B019091DC
:100250000C01A0910D01B0910E010196A11DB11DDF
:1002600080930B0190930C01A0930D01B0930E01AC
:10027000BF91AF919F918F913F912F910F900FBEA2
:100280000F901F9018950F931F939FB7F8940091AC
:100290000B0110910C0120910D0130910E0186B5DA
:1002A000A89B06C08F3F21F00F5F1F4F2F4F3F4F7E
:1002B0009FBF322F212F102F0027080F111D211D46
:1002C000311D42E0000F111F221F331F4A95D1F745
:1002D000B801C9011F910F910895CF92DF92EF925B
:1002E000FF92CF93DF936B017C010E944301EB01EE
:1002F0000EC00E9443016C1B7D0B683E734038F0BA
:1003000081E0C81AD108E108F108C851DC4FC114D6
:10031000D104E104F10469F7DF91CF91FF90EF90F0
:10032000DF90CF900895789484B5826084BD84B5C1
:10033000816084BD85B5826085BD85B5816085BDE0
:10034000EEE6F0E0808181608083E1E8F0E01082F9
:10035000808182608083808181608083E0E8F0E03A
:10036000808181608083E1EBF0E080818460808324
:10037000E0EBF0E0808181608083EAE7F0E080815B
:1003800084608083808182608083808181608083BB
:100390008081806880831092C1000895833069F065
:1003A00028F48130A1F0823011F514C08630B1F00C
:1003B0008730C1F08430D9F404C0809180008F77F9
:1003C00003C0809180008F7D80938000089584B564
:1003D0008F7702C084B58F7D84BD08958091B00071
:1003E0008F7703C08091B0008F7D8093B000089517
:1003F000CF93DF9390E0FC01E458FF4F4491FC0160
:10040000E057FF4F8491882341F190E0880F991FB6
:10041000FC01E854FF4F25913491D90182559F4F3B
:10042000FC0185919491C82FD92F9FB7F8948C9196
:10043000611106C0409584238C938881842308C071
:10044000623041F4242F209582238C938881842B61
:10045000888302C0842B8C939FBFDF91CF91089536
:100460000F931F93CF93DF931F92CDB7DEB7282F43
:1004700030E0F901E859FF4F8491F901E458FF4F4A
:100480001491F901E057FF4F04910023D1F0882324
:1004900021F069830E94CE016981E02FF0E0EE0F28
:1004A000FF1FE255FF4F85919491DC019FB7F894AF
:1004B0008C91611103C01095812301C0812B8C9315
:1004C0009FBF0F90DF91CF911F910F910895CF9310
:1004D000DF93282F30E0F901E859FF4F8491F901AB
:1004E000E458FF4FD491F901E057FF4FC491CC235A
:1004F00089F081110E94CE01EC2FF0E0EE0FFF1F7A
:10050000EC55FF4F85919491DC018C918D2321E076
:1005100030E011F420E030E0C901DF91CF9108957F
:100520000E9493010E948C00C0E0D0E00E949A00DB
:100530002097E1F30E940000F9CF1F920F920FB6AF
:100540000F9211242F933F934F935F936F937F9359
:100550008F939F93AF93BF93EF93FF93809111017C
:1005600087FF05C010928500109284001AC0209168
:100570001101332727FD30958091100190E0281755
:1005800039077CF480911101992787FD9095FC0132
:10059000EE0FFF1FE80FF91FEE5EFE4F808186FD14
:1005A00037C0809111018F5F80931101209111015B
:1005B000332727FD30958091100190E028173907E7
:1005C000CCF5809111018C30F4F134C0809111018F
:1005D000992787FD9095FC01EE0FFF1FE80FF91F8B
:1005E000EE5EFE4F808161E08F730E94300252C048
:1005F00080E49CE905C08091840090918500049678
:1006000090938900809388008FEF8093110142C0FE
:1006100080911101992787FD9095FC01EE0FFF1F36
:10062000E80FF91FEE5EFE4F808160E08F730E943D
:100630003002B7CF80918400909185000496803479
:100640009C49B0F2D8CF8091840090918500209190
:100650001101332727FD3095F901EE0FFF1FE20F3F
:10066000F31FEE5EFE4F21813281820F931F909324
:1006700089008093880080911101992787FD9095CA
:10068000FC01EE0FFF1FE80FF91FEE5EFE4F8081A9
:1006900086FD9CCFFF91EF91BF91AF919F918F917C
:1006A0007F916F915F914F913F912F910F900FBE6E
:1006B0000F901F901895209110012C30A0F4FC0190
:1006C0002083822F8F5F80931001822F90E0FC01A6
:1006D000EE0FFF1FE80FF91FEE5EFE4F88EB9BE069
:1006E0009283818308952FEFFC0120830895DF9288
:1006F000EF92FF920F931F93CF93DF93EC01D62ECF
:100700007A01890188818C3008F065C061E08D2D07
:100710000E94F8018881A82FB0E0FD01EE0FFF1FB5
:10072000EA0FFB1FEE5EFE4F2D2D2F739081907C04
:10073000922B908360E272E06E197F0977FF02C00E
:100740006D5F7F4F7595679575956795698340E6F1
:1007500059E0401B510B57FF02C04D5F5F4F55954D
:100760004795559547954A836CE00E94F4049CE0B8
:10077000899FB001112420E030E0A901460F571FE6
:10078000FA01EE0FFF1FE40FF51FEE5EFE4F9081A2
:1007900096FD15C02F5F3F4F2C30310571F71DC0FE
:1007A0001092800082E08093810010928500109268
:1007B0008400B19A80916F00826080936F0088817D
:1007C00090E0FC01EE0FFF1FE80FF91FEE5EFE4FF9
:1007D000808180648083888103C0882309F3EFCF00
:1007E000DF91CF911F910F91FF90EF90DF900895CF
:1007F00020E639E040E252E00C947703FC0180816E
:100800008C3070F5918128E830E0291B310997FD83
:100810003395220F331F220F331F621773077CF0AB
:10082000928128E532E0291B310997FD3395220F8B
:10083000331F220F331F621773070CF49B014FB74E
:10084000F89490E0FC01EE0FFF1FE80FF91FEE5E39
:10085000FE4F22503109220F331F328321834FBFB5
:100860000895AF92BF92CF92DF92EF92FF920F93D3
:100870001F93CF93DF93EC01603282E078070CF096
:1008800041C077FD04C0653B710524F405C060E0FC
:1008900070E002C064EB70E0298188E890E0821B80
:1008A000910927FD9395880F991F880F991F5C0167
:1008B000CC24B7FCC094DC2C882777FD8095982F3A
:1008C0002A8148E552E0421B510927FD5395440F08
:1008D000551F440F551F8A01222717FD2095322FDF
:1008E0003F932F931F930F9314EBE12EF12C00E015
:1008F00010E020E030E0A9010E948F040F900F90DB
:100900000F900F90CE01DF91CF911F910F91FF902B
:10091000EF90DF90CF90BF90AF900C94FE034F927A
:100920005F926F927F92AF92BF92CF92DF92EF92DF
:10093000FF920F931F93CF93DF93CDB7DEB72901BB
:100940003A01621B730B840B950B29893A894B89F9
:100950005C892A193B094C095D09298B3A8B4B8B21
:100960005C8B9B01AC0169897A898B899C890E9487
:10097000E404E418F50806091709A80197010E9484
:1009800000052A0D3B1D4C1D5D1DB901CA01DF91FB
:10099000CF911F910F91FF90EF90DF90CF90BF907C
:1009A000AF907F906F905F904F900895F8940C9463
:1009B00050050E941C05A59F900DB49F900DA49F0B
:1009C000800D911D11240895DB018F939F930E9448
:1009D000D904BF91AF91A29F800D911DA39F900D4F
:1009E000B29F900D11240895991B79E004C0991FBE
:1009F000961708F0961B881F7A95C9F78095089579
:100A0000052E97FB16F4009407D057FD0DD00E94D9
:100A1000280507FC09D07EF4909580957095619526
:100A20007F4F8F4F9F4F089550954095309521955A
:100A30003F4F4F4F5F4F0895A29FB001B39FC0013A
:100A4000A39F01D0B29F700D811D1124911D0895A7
:100A5000A1E21A2EAA1BBB1BFD010DC0AA1FBB1FC2
:100A6000EE1FFF1FA217B307E407F50720F0A21B34
:100A7000B30BE40BF50B661F771F881F991F1A94A1
:100A800069F760957095809590959B01AC01BD01CB
:100A9000CF010895EE0FFF1F0590F491E02D09940A
:040AA000F894FFCFF8
:00000001FF
