:100000000C945D000C9485000C9485000C94850084
:100010000C9485000C9485000C9485000C9485004C
:100020000C9485000C9485000C9485000C9485003C
:100030000C9485000C9485000C9485000C9485002C
:100040000C94F9000C9485000C9485000C948500A8
:100050000C9485000C9485000C9485000C9485000C
:100060000C9485000C94850000000007000201003C
:100070000003040600000000000000000102040864
:100080001020408001020408102001020408102002
:10009000040404040404040402020202020203032E
:1000A0000303030300000000250028002B000000CC
:1000B0000000240027002A00E60011241FBECFEF15
:1000C000D8E0DEBFCDBF11E0A0E0B1E0E4E1F9E0AF
:1000D00002C005900D92A032B107D9F711E0A0E25D
:1000E000B1E001C01D92AE33B107E1F710E0CAEBF9
:1000F000D0E004C02297FE010E948404C83BD107CF
:10010000C9F70E94AB020C947F040C94000020E01D
:1001100042E060E180E291E00E94A50361E082E0BC
:100120000E94020261E083E00E94020261E084E03A
:100130000E94020261E085E00C94020280E291E0FC
:100140000E949E0340E060E080E291E00E94710323
:1001500068E071E080E291E00E94A90261E082E043
:100160000E943A0268EE73E080E090E00E946D0128
:1001700060E082E00E943A0261E083E00E943A027D
:1001800068EE73E080E090E00E946D0160E083E043
:100190000E943A0261E084E00E943A0268EE73E055
:1001A00080E090E00E946D0160E084E00E943A02ED
:1001B00061E085E00E943A0268EE73E080E090E042
:1001C0000E946D0160E085E00C943A02CF92EF92BC
:1001D0000F938DE0C82E9CE0E92E0BE02AE049E069
:1001E00068E080E291E00E9459040F91EF90CF9077
:1001F00008951F920F920FB60F9211242F933F93E1
:100200008F939F93AF93BF93809135019091360167
:10021000A0913701B091380130913D01232F2D5F1E
:100220002D3720F40196A11DB11D05C0232F2A579B
:100230000296A11DB11D20933D018093350190933D
:100240003601A0933701B093380180913901909124
:100250003A01A0913B01B0913C010196A11DB11D55
:100260008093390190933A01A0933B01B0933C01F4
:10027000BF91AF919F918F913F912F910F900FBEA2
:100280000F901F9018950F931F939FB7F8940091AC
:10029000390110913A0120913B0130913C0186B522
:1002A000A89B06C08F3F21F00F5F1F4F2F4F3F4F7E
:1002B0009FBF322F212F102F0027080F111D211D46
:1002C000311D42E0000F111F221F331F4A95D1F745
:1002D000B801C9011F910F910895CF92DF92EF925B
:1002E000FF92CF93DF936B017C010E944301EB01EE
:1002F0000EC00E9443016C1B7D0B683E734038F0BA
:1003000081E0C81AD108E108F108C851DC4FC114D6
:10031000D104E104F10469F7DF91CF91FF90EF90F0
:10032000DF90CF900895019739F0880F991F880FBB
:10033000991F02970197F1F70895789484B5826028
:1003400084BD84B5816084BD85B5826085BD85B579
:10035000816085BDEEE6F0E0808181608083E1E828
:10036000F0E0108280818260808380818160808360
:10037000E0E8F0E0808181608083E1EBF0E0808163
:1003800084608083E0EBF0E0808181608083EAE735
:10039000F0E08081846080838081826080838081BE
:1003A000816080838081806880831092C10008957D
:1003B000833069F028F48130A1F0823011F514C047
:1003C0008630B1F08730C1F08430D9F404C0809118
:1003D00080008F7703C0809180008F7D80938000A4
:1003E000089584B58F7702C084B58F7D84BD08954C
:1003F0008091B0008F7703C08091B0008F7D809393
:10040000B0000895CF93DF9390E0FC01E458FF4FD4
:100410004491FC01E057FF4F8491882341F190E023
:10042000880F991FFC01E255FF4F25913491D901A6
:100430008C559F4FFC0185919491C82FD92F9FB760
:10044000F8948C91611106C0409584238C93888127
:10045000842308C0623041F4242F209582238C939A
:100460008881842B888302C0842B8C939FBFDF916B
:10047000CF9108950F931F93CF93DF931F92CDB722
:10048000DEB7282F30E0F901E859FF4F8491F901D8
:10049000E458FF4F1491F901E057FF4F04910023F6
:1004A000D1F0882321F069830E94D8016981E02F6F
:1004B000F0E0EE0FFF1FEC55FF4F85919491DC01AA
:1004C0009FB7F8948C91611103C01095812301C0EE
:1004D000812B8C939FBF0F90DF91CF911F910F9134
:1004E0000895CF92DF92EF92FF920F931F93CF93D5
:1004F000DF936C01EB017A01E60EF71E00E010E0DD
:100500000BC06991D601ED91FC910190F081E02D35
:10051000C6010995080F191FCE15DF0591F7C8010F
:10052000DF91CF911F910F91FF90EF90DF90CF90CF
:100530000895DB010D900020E9F7AD01415051090C
:10054000461B570BDC01ED91FC910280F381E02DFD
:1005500009940C9499020E949D010E948700C0E0BA
:10056000D0E00E949E002097E1F30E940000F9CFA6
:10057000CF93DF93EC0160E08E810E943A0281E02C
:1005800090E00E94930161E08E810E943A0281E036
:1005900090E00E94930160E08E810E943A0284E61E
:1005A00090E0DF91CF910C949301CF92DF92EF9284
:1005B000FF920F931F93CF93DF937C01C0E0D0E0B5
:1005C000C62ED12C87010C0F1D1F61E0F801878119
:1005D0000E940202B6010C2E02C0759567950A941E
:1005E000E2F761707727F80187810E943A0221962D
:1005F000C430D10539F7C701DF91CF911F910F9119
:10060000FF90EF90DF90CF900C94B802CF92DF92E2
:10061000EF92FF920F931F93CF93DF937C01C0E083
:10062000D0E0C62ED12C87010C0F1D1F61E0F80110
:1006300087810E940202B6010C2E02C07595679553
:100640000A94E2F761707727F80187810E943A02E5
:100650002196C830D10539F7C701DF91CF911F919D
:100660000F91FF90EF90DF90CF900C94B8021F9302
:10067000CF93DF93EC01162F642F8C810E943A02F6
:100680008D818F3F19F060E00E943A028F85612FC3
:1006900084FF06C0CE01DF91CF911F910C94060319
:1006A00070E084E0759567958A95E1F7CE010E9428
:1006B000D502612FCE01DF91CF911F910C94D5020D
:1006C00041E00E94370381E090E0089540E00C94FF
:1006D0003703FC016089262F2460208B6C600C940A
:1006E0006603CF93DF93CDB7DEB728970FB6F894A4
:1006F000DEBF0FBECDBF28E0E0E0F1E0DE011196E5
:1007000001900D922A95E1F7FC012389421710F020
:10071000422F4150FE013196E40FF11DE40FF11D0F
:100720002081260F2068622F28960FB6F894DEBF2E
:100730000FBECDBFDF91CF910C94660361E00E94A4
:10074000660380ED97E00C949301CF93DF93EC0167
:10075000423018F08F8588608F874B8B1C8A22234C
:1007600029F0413019F48F8584608F8780E593EC00
:100770000E94930160E08C810E943A0260E08E81C9
:100780000E943A028D818F3F19F060E00E943A0288
:100790006F8564FD1DC063E0CE010E94D50284E92F
:1007A00091E10E94930163E0CE010E94D50284E9A9
:1007B00091E10E94930163E0CE010E94D50286E997
:1007C00090E00E94930162E0CE010E94D50216C023
:1007D0006062CE010E94660384E991E10E94930168
:1007E0006F856062CE010E94660386E990E00E94F8
:1007F00093016F856062CE010E9466036F8560621F
:10080000CE010E94660384E0888BCE010E946903BA
:10081000CE010E949E0382E0898B66E0CE01DF91CB
:10082000CF910C9466036F927F928F92AF92CF928A
:10083000EF920F931F93CF93DF93CDB7DEB73C01B9
:10084000162F842F5D854E853F859889F30184831B
:1008500025830683E782C086A186828653874487E4
:100860003587968761E00E940202F30185818F3F00
:1008700019F061E00E94020261E0F30186810E94AA
:100880000202112319F0F301178603C080E1F3017E
:10089000878720E041E060E1C301DF91CF911F91A4
:1008A0000F91EF90CF90AF908F907F906F900C94BE
:1008B000A5038F92AF92CF92EF920F93DC01139624
:1008C0001C921E921297EBE1F1E0ED93FC931F92C4
:1008D0001F921F921F928C2CAE2CC02EE22E042F42
:1008E0002FEF462F61E00E9413040F900F900F909E
:1008F0000F900F91EF90CF90AF908F900895F89454
:100900000C948804EE0FFF1F0590F491E02D0994DC
:04091000F894FFCF89
:100914000000400014005400416CC3B420416C65D5
:1009240078616E647265000000000060037102006B
:00000001FF
