:100000000C945C000C946E000C946E000C946E00CA
:100010000C946E000C946E000C946E000C946E00A8
:100020000C946E000C946E000C946E000C946E0098
:100030000C946E000C946E000C946E000C946E0088
:100040000C94B8000C946E000C946E000C946E002E
:100050000C946E000C946E000C946E000C946E0068
:100060000C946E000C946E0000000007000201006A
:100070000003040600000000000000000102040864
:100080001020408001020408102001020408102002
:10009000040404040404040402020202020203032E
:1000A0000303030300000000250028002B000000CC
:1000B0000000240027002A0011241FBECFEFD8E043
:1000C000DEBFCDBF11E0A0E0B1E001C01D92A930BC
:1000D000B107E1F70E9426020C9433020C94000051
:1000E00061E082E00E94B70161E083E00E94B70115
:1000F00061E084E00E94B70161E085E00C94B70103
:1001000061E082E00E94EF0168EE73E080E090E041
:100110000E942C0160E082E00E94EF0161E083E038
:100120000E94EF0168EE73E080E090E00E942C01F5
:1001300060E083E00E94EF0161E084E00E94EF0153
:1001400068EE73E080E090E00E942C0160E084E0C3
:100150000E94EF0161E085E00E94EF0168EE73E02C
:1001600080E090E00E942C0160E085E00C94EF01BB
:100170001F920F920FB60F9211242F933F938F93DC
:100180009F93AF93BF938091000190910101A09143
:100190000201B091030130910801232F2D5F2D370B
:1001A00020F40196A11DB11D05C0232F2A570296E8
:1001B000A11DB11D209308018093000190930101BE
:1001C000A0930201B0930301809104019091050175
:1001D000A0910601B09107010196A11DB11D809368
:1001E000040190930501A0930601B0930701BF910C
:1001F000AF919F918F913F912F910F900FBE0F90D4
:100200001F9018950F931F939FB7F89400910401C6
:1002100010910501209106013091070186B5A89B38
:1002200006C08F3F21F00F5F1F4F2F4F3F4F9FBFE3
:10023000322F212F102F0027080F111D211D311DD6
:1002400042E0000F111F221F331F4A95D1F7B8015A
:10025000C9011F910F910895CF92DF92EF92FF9203
:10026000CF93DF936B017C010E940201EB010EC072
:100270000E9402016C1B7D0B683E734038F081E0E8
:10028000C81AD108E108F108C851DC4FC114D104E3
:10029000E104F10469F7DF91CF91FF90EF90DF90D7
:1002A000CF900895789484B5826084BD84B58160D0
:1002B00084BD85B5826085BD85B5816085BDEEE66E
:1002C000F0E0808181608083E1E8F0E0108280814D
:1002D00082608083808181608083E0E8F0E08081BB
:1002E00081608083E1EBF0E0808184608083E0EBDB
:1002F000F0E0808181608083EAE7F0E080818460C3
:10030000808380818260808380818160808380811E
:10031000806880831092C1000895833069F028F4CA
:100320008130A1F0823011F514C08630B1F08730F1
:10033000C1F08430D9F404C0809180008F7703C06D
:10034000809180008F7D80938000089584B58F77A1
:1003500002C084B58F7D84BD08958091B0008F77F1
:1003600003C08091B0008F7D8093B0000895CF933B
:10037000DF9390E0FC01E458FF4F4491FC01E0570B
:10038000FF4F8491882341F190E0880F991FFC0171
:10039000E255FF4F25913491D9018C559F4FFC01B7
:1003A00085919491C82FD92F9FB7F8948C916111A2
:1003B00006C0409584238C938881842308C06230D2
:1003C00041F4242F209582238C938881842B888369
:1003D00002C0842B8C939FBFDF91CF9108950F9320
:1003E0001F93CF93DF931F92CDB7DEB7282F30E056
:1003F000F901E859FF4F8491F901E458FF4F149136
:10040000F901E057FF4F04910023D1F0882321F038
:1004100069830E948D016981E02FF0E0EE0FFF1FDC
:10042000EC55FF4F85919491DC019FB7F8948C9126
:10043000611103C01095812301C0812B8C939FBF54
:100440000F90DF91CF911F910F9108950E9452015B
:100450000E947000C0E0D0E00E9480002097E1F38D
:100460000E940000F9CFF8940C943602F894FFCF64
:00000001FF
