:100000000C945D000C9485000C9485000C94850084
:100010000C9485000C9485000C9485000C9485004C
:100020000C9485000C9485000C9485000C9485003C
:100030000C9485000C9485000C9485000C9485002C
:100040000C9431030C9485000C9485000C9485006D
:100050000C9485000C9485000C9485000C9485000C
:100060000C9485000C94850000000007000201003C
:100070000003040600000000000000000102040864
:100080001020408001020408102001020408102002
:10009000040404040404040402020202020203032E
:1000A0000303030300000000250028002B000000CC
:1000B0000000240027002A00A40011241FBECFEF57
:1000C000D8E0DEBFCDBF11E0A0E0B1E0E6E9F7E0A7
:1000D00002C005900D92A231B107D9F711E0A2E15B
:1000E000B1E001C01D92A033B107E1F710E0CAEB07
:1000F000D0E004C02297FE010E94C503C83BD1078F
:10010000C9F70E948A010C94C0030C94000020E0FF
:1001100042E060E182E191E00E94570261E082E00A
:100120000E94E10061E083E00E94E10060E071E094
:1001300082E191E00C94880160E082E00E94190164
:1001400061E083E00C941901CF92EF920F938DE060
:10015000C82E9CE0E92E0BE02AE049E068E082E14D
:1001600091E00E940B030F91EF90CF9008958330A0
:1001700069F028F48130A1F0823011F514C0863086
:10018000B1F08730C1F08430D9F404C08091800090
:100190008F7703C0809180008F7D809380000895C9
:1001A00084B58F7702C084B58F7D84BD089580911A
:1001B000B0008F7703C08091B0008F7D8093B00036
:1001C0000895CF93DF9390E0FC01E458FF4F4491F2
:1001D000FC01E057FF4F8491882341F190E0880FA4
:1001E000991FFC01E255FF4F25913491D9018C559F
:1001F0009F4FFC0185919491C82FD92F9FB7F894F8
:100200008C91611106C0409584238C93888184234E
:1002100008C0623041F4242F209582238C9388817A
:10022000842B888302C0842B8C939FBFDF91CF9156
:1002300008950F931F93CF93DF931F92CDB7DEB72F
:10024000282F30E0F901E859FF4F8491F901E45873
:10025000FF4F1491F901E057FF4F04910023D1F0B3
:10026000882321F069830E94B7006981E02FF0E0C4
:10027000EE0FFF1FEC55FF4F85919491DC019FB766
:10028000F8948C91611103C01095812301C0812BDA
:100290008C939FBF0F90DF91CF911F910F91089585
:1002A000CF92DF92EF92FF920F931F93CF93DF9342
:1002B0006C01EB017A01E60EF71E00E010E00BC0C6
:1002C0006991D601ED91FC910190F081E02DC6017C
:1002D0000995080F191FCE15DF0591F7C801DF91A9
:1002E000CF911F910F91FF90EF90DF90CF900895E5
:1002F000DB010D900020E9F7AD0141505109461B8B
:10030000570BDC01ED91FC910280F381E02D099403
:100310000C9478010E9485030E948700C0E0D0E021
:100320000E949C002097E1F30E940000F9CFCF9338
:10033000DF93EC0160E08E810E94190181E090E082
:100340000E947B0361E08E810E94190181E090E0B0
:100350000E947B0360E08E810E94190184E690E098
:10036000DF91CF910C947B03CF92DF92EF92FF92BB
:100370000F931F93CF93DF937C01C0E0D0E0C62E94
:10038000D12C87010C0F1D1F61E0F80187810E94AD
:10039000E100B6010C2E02C0759567950A94E2F74C
:1003A00061707727F80187810E9419012196C43076
:1003B000D10539F7C701DF91CF911F910F91FF90C0
:1003C000EF90DF90CF900C949701CF92DF92EF9255
:1003D000FF920F931F93CF93DF937C01C0E0D0E097
:1003E000C62ED12C87010C0F1D1F61E0F8018781FB
:1003F0000E94E100B6010C2E02C0759567950A9423
:10040000E2F761707727F80187810E941901219630
:10041000C830D10539F7C701DF91CF911F910F91F6
:10042000FF90EF90DF90CF900C9497011F93CF93A4
:10043000DF93EC01162F642F8C810E9419018D81AE
:100440008F3F19F060E00E9419018F85612F84FFB2
:1004500006C0CE01DF91CF911F910C94E50170E0B1
:1004600084E0759567958A95E1F7CE010E94B40105
:10047000612FCE01DF91CF911F910C94B40141E027
:100480000E94160281E090E0089540E00C9416026C
:10049000FC016089262F2460208B6C600C9445023F
:1004A00061E00E94450280ED97E00C947B03CF93BE
:1004B000DF93EC01423018F08F8588608F874B8B7B
:1004C0001C8A222329F0413019F48F8584608F879C
:1004D00080E593EC0E947B0360E08C810E9419010F
:1004E00060E08E810E9419018D818F3F19F060E0DC
:1004F0000E9419016F8564FD1DC063E0CE010E945A
:10050000B40184E991E10E947B0363E0CE010E9483
:10051000B40184E991E10E947B0363E0CE010E9473
:10052000B40186E990E00E947B0362E0CE010E9464
:10053000B40116C06062CE010E94450284E991E1D7
:100540000E947B036F856062CE010E94450286E9AE
:1005500090E00E947B036F856062CE010E9445029D
:100560006F856062CE010E94450284E0888BCE01D7
:100570000E944802CE010E94500282E0898B66E010
:10058000CE01DF91CF910C9445026F927F928F92B2
:10059000AF92CF92EF920F931F93CF93DF93CDB78C
:1005A000DEB73C01162F842F5D854E853F859889E7
:1005B000F301848325830683E782C086A186828631
:1005C000538744873587968761E00E94E100F301F5
:1005D00085818F3F19F061E00E94E10061E0F30145
:1005E00086810E94E100112319F0F301178603C0F0
:1005F00080E1F301878720E041E060E1C301DF9102
:10060000CF911F910F91EF90CF90AF908F907F90EF
:100610006F900C9457028F92AF92CF92EF920F93FC
:10062000DC0113961C921E921297EEE0F1E0ED931E
:10063000FC931F921F921F921F928C2CAE2CC02EE7
:10064000E22E042F2FEF462F61E00E94C5020F908B
:100650000F900F900F900F91EF90CF90AF908F90E1
:1006600008951F920F920FB60F9211242F933F936C
:100670008F939F93AF93BF9380912701909128010F
:10068000A0912901B0912A0130912F01232F2D5FD4
:100690002D3720F40196A11DB11D05C0232F2A5727
:1006A0000296A11DB11D20932F01809327019093E5
:1006B0002801A0932901B0932A0180912B019091E8
:1006C0002C01A0912D01B0912E010196A11DB11D0B
:1006D00080932B0190932C01A0932D01B0932E01B8
:1006E000BF91AF919F918F913F912F910F900FBE2E
:1006F0000F901F901895019739F0880F991F880F58
:10070000991F02970197F1F70895789484B5826054
:1007100084BD84B5816084BD85B5826085BD85B5A5
:10072000816085BDEEE6F0E0808181608083E1E854
:10073000F0E010828081826080838081816080838C
:10074000E0E8F0E0808181608083E1EBF0E080818F
:1007500084608083E0EBF0E0808181608083EAE761
:10076000F0E08081846080838081826080838081EA
:10077000816080838081806880831092C1000895A9
:10078000F8940C94C903EE0FFF1F0590F491E02D2F
:060790000994F894FFCF6C
:10079600426F6120746172646500000000003F02D0
:0207A600500100
:00000001FF
