:100000000C9434000C9446000C9446000C9446006A
:100010000C9446000C9446000C9446000C94460048
:100020000C9446000C9446000C9446000C94460038
:100030000C9446000C9446000C9446000C94460028
:100040000C9457000C9446000C9446000C94460007
:100050000C9446000C9446000C9446000C94460008
:100060000C9446000C94460011241FBECFEFD8E03C
:10007000DEBFCDBF11E0A0E0B1E001C01D92A9300C
:10008000B107E1F70E944A000C94DC000C940000D8
:10009000089508950E94A1000E944800C0E0D0E0A9
:1000A0000E9449002097E1F30E940000F9CF1F92BF
:1000B0000F920FB60F9211242F933F938F939F931C
:1000C000AF93BF938091000190910101A091020133
:1000D000B091030130910801232F2D5F2D3720F4BB
:1000E0000196A11DB11D05C0232F2A570296A11DFF
:1000F000B11D209308018093000190930101A0930A
:100100000201B09303018091040190910501A09137
:100110000601B09107010196A11DB11D8093040154
:1001200090930501A0930601B0930701BF91AF9191
:100130009F918F913F912F910F900FBE0F901F9025
:100140001895789484B5826084BD84B5816084BD3F
:1001500085B5826085BD85B5816085BDEEE6F0E040
:10016000808181608083E1E8F0E01082808182609C
:100170008083808181608083E0E8F0E0808181601D
:100180008083E1EBF0E0808184608083E0EBF0E04D
:10019000808181608083EAE7F0E0808184608083F1
:1001A000808182608083808181608083808180689B
:1001B00080831092C1000895F8940C94DF00F894A5
:0201C000FFCF6F
:00000001FF
